{
  "contractName": "SmartContract",
  "abi": [
    {
      "inputs": [],
      "stateMutability": "nonpayable",
      "type": "constructor"
    },
    {
      "anonymous": false,
      "inputs": [
        {
          "indexed": false,
          "internalType": "address",
          "name": "patientaddress",
          "type": "address"
        },
        {
          "indexed": false,
          "internalType": "string",
          "name": "firstname",
          "type": "string"
        },
        {
          "indexed": false,
          "internalType": "string",
          "name": "lastname",
          "type": "string"
        },
        {
          "indexed": false,
          "internalType": "string",
          "name": "pubKey",
          "type": "string"
        }
      ],
      "name": "patientAdded",
      "type": "event"
    },
    {
      "anonymous": false,
      "inputs": [
        {
          "indexed": false,
          "internalType": "uint256",
          "name": "yourFilesCounter",
          "type": "uint256"
        },
        {
          "indexed": false,
          "internalType": "string",
          "name": "hash",
          "type": "string"
        },
        {
          "indexed": false,
          "internalType": "string",
          "name": "name",
          "type": "string"
        },
        {
          "indexed": false,
          "internalType": "string",
          "name": "description",
          "type": "string"
        },
        {
          "indexed": false,
          "internalType": "uint256",
          "name": "time",
          "type": "uint256"
        },
        {
          "indexed": false,
          "internalType": "address",
          "name": "owner",
          "type": "address"
        },
        {
          "indexed": false,
          "internalType": "address",
          "name": "uploader",
          "type": "address"
        }
      ],
      "name": "recordAdded",
      "type": "event"
    },
    {
      "anonymous": false,
      "inputs": [
        {
          "indexed": false,
          "internalType": "string",
          "name": "hash",
          "type": "string"
        },
        {
          "indexed": false,
          "internalType": "uint256",
          "name": "time",
          "type": "uint256"
        },
        {
          "indexed": false,
          "internalType": "address",
          "name": "owner",
          "type": "address"
        },
        {
          "indexed": false,
          "internalType": "address",
          "name": "provider",
          "type": "address"
        }
      ],
      "name": "recordShared",
      "type": "event"
    },
    {
      "inputs": [
        {
          "internalType": "uint256",
          "name": "",
          "type": "uint256"
        }
      ],
      "name": "doctorAdd",
      "outputs": [
        {
          "internalType": "address",
          "name": "",
          "type": "address"
        }
      ],
      "stateMutability": "view",
      "type": "function"
    },
    {
      "inputs": [
        {
          "internalType": "address",
          "name": "",
          "type": "address"
        }
      ],
      "name": "doctormapping",
      "outputs": [
        {
          "internalType": "string",
          "name": "firstname",
          "type": "string"
        },
        {
          "internalType": "string",
          "name": "lastname",
          "type": "string"
        },
        {
          "internalType": "string",
          "name": "pubKey",
          "type": "string"
        },
        {
          "internalType": "string",
          "name": "specialization",
          "type": "string"
        }
      ],
      "stateMutability": "view",
      "type": "function"
    },
    {
      "inputs": [
        {
          "internalType": "uint256",
          "name": "",
          "type": "uint256"
        }
      ],
      "name": "filemapping",
      "outputs": [
        {
          "internalType": "uint256",
          "name": "id",
          "type": "uint256"
        },
        {
          "internalType": "string",
          "name": "hash",
          "type": "string"
        },
        {
          "internalType": "string",
          "name": "name",
          "type": "string"
        },
        {
          "internalType": "string",
          "name": "description",
          "type": "string"
        },
        {
          "internalType": "uint256",
          "name": "date",
          "type": "uint256"
        },
        {
          "internalType": "address",
          "name": "owner",
          "type": "address"
        },
        {
          "internalType": "address",
          "name": "uploader",
          "type": "address"
        },
        {
          "internalType": "string",
          "name": "key",
          "type": "string"
        }
      ],
      "stateMutability": "view",
      "type": "function"
    },
    {
      "inputs": [],
      "name": "id",
      "outputs": [
        {
          "internalType": "uint256",
          "name": "",
          "type": "uint256"
        }
      ],
      "stateMutability": "view",
      "type": "function"
    },
    {
      "inputs": [
        {
          "internalType": "address",
          "name": "",
          "type": "address"
        }
      ],
      "name": "isDoctor",
      "outputs": [
        {
          "internalType": "bool",
          "name": "",
          "type": "bool"
        }
      ],
      "stateMutability": "view",
      "type": "function"
    },
    {
      "inputs": [
        {
          "internalType": "address",
          "name": "",
          "type": "address"
        }
      ],
      "name": "isPatient",
      "outputs": [
        {
          "internalType": "bool",
          "name": "",
          "type": "bool"
        }
      ],
      "stateMutability": "view",
      "type": "function"
    },
    {
      "inputs": [
        {
          "internalType": "uint256",
          "name": "",
          "type": "uint256"
        }
      ],
      "name": "patientAdd",
      "outputs": [
        {
          "internalType": "address",
          "name": "",
          "type": "address"
        }
      ],
      "stateMutability": "view",
      "type": "function"
    },
    {
      "inputs": [
        {
          "internalType": "address",
          "name": "",
          "type": "address"
        }
      ],
      "name": "patientmapping",
      "outputs": [
        {
          "internalType": "string",
          "name": "firstname",
          "type": "string"
        },
        {
          "internalType": "string",
          "name": "lastname",
          "type": "string"
        },
        {
          "internalType": "string",
          "name": "pubKey",
          "type": "string"
        },
        {
          "internalType": "uint256",
          "name": "yourFilesCounter",
          "type": "uint256"
        },
        {
          "internalType": "uint256",
          "name": "sharedWithYouCounter",
          "type": "uint256"
        }
      ],
      "stateMutability": "view",
      "type": "function"
    },
    {
      "inputs": [
        {
          "internalType": "address",
          "name": "_patientaddress",
          "type": "address"
        },
        {
          "internalType": "string",
          "name": "_firstname",
          "type": "string"
        },
        {
          "internalType": "string",
          "name": "_lastname",
          "type": "string"
        },
        {
          "internalType": "string",
          "name": "_pubKey",
          "type": "string"
        }
      ],
      "name": "addPatient",
      "outputs": [],
      "stateMutability": "nonpayable",
      "type": "function"
    },
    {
      "inputs": [
        {
          "internalType": "uint256",
          "name": "id",
          "type": "uint256"
        },
        {
          "internalType": "string",
          "name": "hash",
          "type": "string"
        },
        {
          "internalType": "string",
          "name": "name",
          "type": "string"
        },
        {
          "internalType": "string",
          "name": "description",
          "type": "string"
        },
        {
          "internalType": "address",
          "name": "provider",
          "type": "address"
        },
        {
          "internalType": "string",
          "name": "key",
          "type": "string"
        }
      ],
      "name": "share",
      "outputs": [],
      "stateMutability": "nonpayable",
      "type": "function"
    },
    {
      "inputs": [
        {
          "internalType": "string",
          "name": "_hash",
          "type": "string"
        },
        {
          "internalType": "string",
          "name": "_name",
          "type": "string"
        },
        {
          "internalType": "string",
          "name": "_description",
          "type": "string"
        },
        {
          "internalType": "address",
          "name": "_owner",
          "type": "address"
        },
        {
          "internalType": "string",
          "name": "key",
          "type": "string"
        }
      ],
      "name": "addRecord",
      "outputs": [],
      "stateMutability": "nonpayable",
      "type": "function"
    },
    {
      "inputs": [
        {
          "internalType": "address",
          "name": "patientAddress",
          "type": "address"
        },
        {
          "internalType": "uint256",
          "name": "index",
          "type": "uint256"
        }
      ],
      "name": "getPatientFiles",
      "outputs": [
        {
          "components": [
            {
              "internalType": "uint256",
              "name": "id",
              "type": "uint256"
            },
            {
              "internalType": "string",
              "name": "hash",
              "type": "string"
            },
            {
              "internalType": "string",
              "name": "name",
              "type": "string"
            },
            {
              "internalType": "string",
              "name": "description",
              "type": "string"
            },
            {
              "internalType": "uint256",
              "name": "date",
              "type": "uint256"
            },
            {
              "internalType": "address",
              "name": "owner",
              "type": "address"
            },
            {
              "internalType": "address",
              "name": "uploader",
              "type": "address"
            },
            {
              "internalType": "string",
              "name": "key",
              "type": "string"
            }
          ],
          "internalType": "struct SmartContract.File",
          "name": "",
          "type": "tuple"
        }
      ],
      "stateMutability": "view",
      "type": "function"
    },
    {
      "inputs": [
        {
          "internalType": "address",
          "name": "patientAddress",
          "type": "address"
        },
        {
          "internalType": "uint256",
          "name": "index",
          "type": "uint256"
        }
      ],
      "name": "getSharedWithYouFiles",
      "outputs": [
        {
          "components": [
            {
              "internalType": "string",
              "name": "hash",
              "type": "string"
            },
            {
              "internalType": "string",
              "name": "name",
              "type": "string"
            },
            {
              "internalType": "string",
              "name": "description",
              "type": "string"
            },
            {
              "internalType": "uint256",
              "name": "date",
              "type": "uint256"
            },
            {
              "internalType": "address",
              "name": "owner",
              "type": "address"
            },
            {
              "internalType": "string",
              "name": "key",
              "type": "string"
            }
          ],
          "internalType": "struct SmartContract.SharedFile",
          "name": "",
          "type": "tuple"
        }
      ],
      "stateMutability": "view",
      "type": "function"
    }
  ],
  "bytecode": "0x608060405260006007553480156200001657600080fd5b5060016000807339f573c0f078847939aaeeedca6bee1cfe77208673ffffffffffffffffffffffffffffffffffffffff1673ffffffffffffffffffffffffffffffffffffffff16815260200190815260200160002060006101000a81548160ff0219169083151502179055506040518060400160405280600281526020017f4472000000000000000000000000000000000000000000000000000000000000815250600160007339f573c0f078847939aaeeedca6bee1cfe77208673ffffffffffffffffffffffffffffffffffffffff1673ffffffffffffffffffffffffffffffffffffffff16815260200190815260200160002060000190805190602001906200012392919062000a08565b506040518060400160405280600381526020017f4472650000000000000000000000000000000000000000000000000000000000815250600160007339f573c0f078847939aaeeedca6bee1cfe77208673ffffffffffffffffffffffffffffffffffffffff1673ffffffffffffffffffffffffffffffffffffffff1681526020019081526020016000206001019080519060200190620001c592919062000a08565b5060405180610100016040528060d881526020016200340860d89139600160007339f573c0f078847939aaeeedca6bee1cfe77208673ffffffffffffffffffffffffffffffffffffffff1673ffffffffffffffffffffffffffffffffffffffff16815260200190815260200160002060020190805190602001906200024c92919062000a08565b506040518060400160405280600c81526020017f43617264696f6c6f676973740000000000000000000000000000000000000000815250600160007339f573c0f078847939aaeeedca6bee1cfe77208673ffffffffffffffffffffffffffffffffffffffff1673ffffffffffffffffffffffffffffffffffffffff1681526020019081526020016000206003019080519060200190620002ee92919062000a08565b5060027339f573c0f078847939aaeeedca6bee1cfe7720869080600181540180825580915050600190039060005260206000200160009091909190916101000a81548173ffffffffffffffffffffffffffffffffffffffff021916908373ffffffffffffffffffffffffffffffffffffffff16021790555060016000807369fd5f300faac374a89a4c785d6941c33e97d2e673ffffffffffffffffffffffffffffffffffffffff1673ffffffffffffffffffffffffffffffffffffffff16815260200190815260200160002060006101000a81548160ff0219169083151502179055506040518060400160405280600281526020017f4472000000000000000000000000000000000000000000000000000000000000815250600160007369fd5f300faac374a89a4c785d6941c33e97d2e673ffffffffffffffffffffffffffffffffffffffff1673ffffffffffffffffffffffffffffffffffffffff16815260200190815260200160002060000190805190602001906200047292919062000a08565b506040518060400160405280600681526020017f4f65746b65720000000000000000000000000000000000000000000000000000815250600160007369fd5f300faac374a89a4c785d6941c33e97d2e673ffffffffffffffffffffffffffffffffffffffff1673ffffffffffffffffffffffffffffffffffffffff16815260200190815260200160002060010190805190602001906200051492919062000a08565b506040518060a0016040528060808152602001620034e060809139600160007369fd5f300faac374a89a4c785d6941c33e97d2e673ffffffffffffffffffffffffffffffffffffffff1673ffffffffffffffffffffffffffffffffffffffff16815260200190815260200160002060020190805190602001906200059a92919062000a08565b506040518060400160405280600c81526020017f50656469617472696369616e0000000000000000000000000000000000000000815250600160007369fd5f300faac374a89a4c785d6941c33e97d2e673ffffffffffffffffffffffffffffffffffffffff1673ffffffffffffffffffffffffffffffffffffffff16815260200190815260200160002060030190805190602001906200063c92919062000a08565b5060027369fd5f300faac374a89a4c785d6941c33e97d2e69080600181540180825580915050600190039060005260206000200160009091909190916101000a81548173ffffffffffffffffffffffffffffffffffffffff021916908373ffffffffffffffffffffffffffffffffffffffff160217905550600160008073affa5deb9b4aa5f1d3d722b82d64079ffa0e8bc273ffffffffffffffffffffffffffffffffffffffff1673ffffffffffffffffffffffffffffffffffffffff16815260200190815260200160002060006101000a81548160ff0219169083151502179055506040518060400160405280600281526020017f44720000000000000000000000000000000000000000000000000000000000008152506001600073affa5deb9b4aa5f1d3d722b82d64079ffa0e8bc273ffffffffffffffffffffffffffffffffffffffff1673ffffffffffffffffffffffffffffffffffffffff1681526020019081526020016000206000019080519060200190620007c092919062000a08565b506040518060400160405280600681526020017f47657261726400000000000000000000000000000000000000000000000000008152506001600073affa5deb9b4aa5f1d3d722b82d64079ffa0e8bc273ffffffffffffffffffffffffffffffffffffffff1673ffffffffffffffffffffffffffffffffffffffff16815260200190815260200160002060010190805190602001906200086292919062000a08565b506040518060a00160405280607c81526020016200338c607c91396001600073affa5deb9b4aa5f1d3d722b82d64079ffa0e8bc273ffffffffffffffffffffffffffffffffffffffff1673ffffffffffffffffffffffffffffffffffffffff1681526020019081526020016000206002019080519060200190620008e892919062000a08565b506040518060400160405280600c81526020017f496d6d756e6f6c6f6769737400000000000000000000000000000000000000008152506001600073affa5deb9b4aa5f1d3d722b82d64079ffa0e8bc273ffffffffffffffffffffffffffffffffffffffff1673ffffffffffffffffffffffffffffffffffffffff16815260200190815260200160002060030190805190602001906200098a92919062000a08565b50600273affa5deb9b4aa5f1d3d722b82d64079ffa0e8bc29080600181540180825580915050600190039060005260206000200160009091909190916101000a81548173ffffffffffffffffffffffffffffffffffffffff021916908373ffffffffffffffffffffffffffffffffffffffff16021790555062000b1d565b82805462000a169062000ab8565b90600052602060002090601f01602090048101928262000a3a576000855562000a86565b82601f1062000a5557805160ff191683800117855562000a86565b8280016001018555821562000a86579182015b8281111562000a8557825182559160200191906001019062000a68565b5b50905062000a95919062000a99565b5090565b5b8082111562000ab457600081600090555060010162000a9a565b5090565b6000600282049050600182168062000ad157607f821691505b6020821081141562000ae85762000ae762000aee565b5b50919050565b7f4e487b7100000000000000000000000000000000000000000000000000000000600052602260045260246000fd5b61285f8062000b2d6000396000f3fe608060405234801561001057600080fd5b50600436106100cf5760003560e01c80638f9c79ed1161008c578063af640d0f11610066578063af640d0f14610263578063c2adc23914610281578063c5df6354146102b1578063cd1f5a35146102e8576100cf565b80638f9c79ed146101e7578063996440c6146102175780639ff3e8ad14610247576100cf565b80632c76361f146100d45780633731b331146100f05780633da8533e1461012057806349c4bdb21461015457806364f479fb14610184578063731c0cad146101b4575b600080fd5b6100ee60048036038101906100e99190611d85565b610304565b005b61010a60048036038101906101059190611f43565b610597565b6040516101179190612275565b60405180910390f35b61013a60048036038101906101359190611d5c565b6105d6565b60405161014b959493929190612366565b60405180910390f35b61016e60048036038101906101699190611f43565b6107a4565b60405161017b9190612275565b60405180910390f35b61019e60048036038101906101999190611e30565b6107e3565b6040516101ab919061241a565b60405180910390f35b6101ce60048036038101906101c99190611d5c565b610b60565b6040516101de9493929190612305565b60405180910390f35b61020160048036038101906101fc9190611d5c565b610db0565b60405161020e91906122ea565b60405180910390f35b610231600480360381019061022c9190611d5c565b610dd0565b60405161023e91906122ea565b60405180910390f35b610261600480360381019061025c9190611e6c565b610df0565b005b61026b6112f4565b604051610278919061245e565b60405180910390f35b61029b60048036038101906102969190611e30565b6112fa565b6040516102a8919061243c565b60405180910390f35b6102cb60048036038101906102c69190611f43565b611616565b6040516102df9897969594939291906124fd565b60405180910390f35b61030260048036038101906102fd9190611f6c565b6118be565b005b6001600360008673ffffffffffffffffffffffffffffffffffffffff1673ffffffffffffffffffffffffffffffffffffffff16815260200190815260200160002060006101000a81548160ff02191690831515021790555082600460008673ffffffffffffffffffffffffffffffffffffffff1673ffffffffffffffffffffffffffffffffffffffff16815260200190815260200160002060000190805190602001906103b2929190611b6a565b5081600460008673ffffffffffffffffffffffffffffffffffffffff1673ffffffffffffffffffffffffffffffffffffffff1681526020019081526020016000206001019080519060200190610409929190611b6a565b5080600460008673ffffffffffffffffffffffffffffffffffffffff1673ffffffffffffffffffffffffffffffffffffffff1681526020019081526020016000206002019080519060200190610460929190611b6a565b506000600460008673ffffffffffffffffffffffffffffffffffffffff1673ffffffffffffffffffffffffffffffffffffffff168152602001908152602001600020600501819055506000600460008673ffffffffffffffffffffffffffffffffffffffff1673ffffffffffffffffffffffffffffffffffffffff168152602001908152602001600020600601819055506005849080600181540180825580915050600190039060005260206000200160009091909190916101000a81548173ffffffffffffffffffffffffffffffffffffffff021916908373ffffffffffffffffffffffffffffffffffffffff1602179055507f9090b1afe6a1ac47175007fa1e1df478243b433f6944c4f118955af6ef2b4372848484846040516105899493929190612290565b60405180910390a150505050565b600581815481106105a757600080fd5b906000526020600020016000915054906101000a900473ffffffffffffffffffffffffffffffffffffffff1681565b60046020528060005260406000206000915090508060000180546105f9906126fa565b80601f0160208091040260200160405190810160405280929190818152602001828054610625906126fa565b80156106725780601f1061064757610100808354040283529160200191610672565b820191906000526020600020905b81548152906001019060200180831161065557829003601f168201915b505050505090806001018054610687906126fa565b80601f01602080910402602001604051908101604052809291908181526020018280546106b3906126fa565b80156107005780601f106106d557610100808354040283529160200191610700565b820191906000526020600020905b8154815290600101906020018083116106e357829003601f168201915b505050505090806002018054610715906126fa565b80601f0160208091040260200160405190810160405280929190818152602001828054610741906126fa565b801561078e5780601f106107635761010080835404028352916020019161078e565b820191906000526020600020905b81548152906001019060200180831161077157829003601f168201915b5050505050908060050154908060060154905085565b600281815481106107b457600080fd5b906000526020600020016000915054906101000a900473ffffffffffffffffffffffffffffffffffffffff1681565b6107eb611bf0565b6000600460008573ffffffffffffffffffffffffffffffffffffffff1673ffffffffffffffffffffffffffffffffffffffff16815260200190815260200160002060030160008481526020019081526020016000206040518061010001604052908160008201548152602001600182018054610866906126fa565b80601f0160208091040260200160405190810160405280929190818152602001828054610892906126fa565b80156108df5780601f106108b4576101008083540402835291602001916108df565b820191906000526020600020905b8154815290600101906020018083116108c257829003601f168201915b505050505081526020016002820180546108f8906126fa565b80601f0160208091040260200160405190810160405280929190818152602001828054610924906126fa565b80156109715780601f1061094657610100808354040283529160200191610971565b820191906000526020600020905b81548152906001019060200180831161095457829003601f168201915b5050505050815260200160038201805461098a906126fa565b80601f01602080910402602001604051908101604052809291908181526020018280546109b6906126fa565b8015610a035780601f106109d857610100808354040283529160200191610a03565b820191906000526020600020905b8154815290600101906020018083116109e657829003601f168201915b50505050508152602001600482015481526020016005820160009054906101000a900473ffffffffffffffffffffffffffffffffffffffff1673ffffffffffffffffffffffffffffffffffffffff1673ffffffffffffffffffffffffffffffffffffffff1681526020016006820160009054906101000a900473ffffffffffffffffffffffffffffffffffffffff1673ffffffffffffffffffffffffffffffffffffffff1673ffffffffffffffffffffffffffffffffffffffff168152602001600782018054610ad2906126fa565b80601f0160208091040260200160405190810160405280929190818152602001828054610afe906126fa565b8015610b4b5780601f10610b2057610100808354040283529160200191610b4b565b820191906000526020600020905b815481529060010190602001808311610b2e57829003601f168201915b50505050508152505090508091505092915050565b6001602052806000526040600020600091509050806000018054610b83906126fa565b80601f0160208091040260200160405190810160405280929190818152602001828054610baf906126fa565b8015610bfc5780601f10610bd157610100808354040283529160200191610bfc565b820191906000526020600020905b815481529060010190602001808311610bdf57829003601f168201915b505050505090806001018054610c11906126fa565b80601f0160208091040260200160405190810160405280929190818152602001828054610c3d906126fa565b8015610c8a5780601f10610c5f57610100808354040283529160200191610c8a565b820191906000526020600020905b815481529060010190602001808311610c6d57829003601f168201915b505050505090806002018054610c9f906126fa565b80601f0160208091040260200160405190810160405280929190818152602001828054610ccb906126fa565b8015610d185780601f10610ced57610100808354040283529160200191610d18565b820191906000526020600020905b815481529060010190602001808311610cfb57829003601f168201915b505050505090806003018054610d2d906126fa565b80601f0160208091040260200160405190810160405280929190818152602001828054610d59906126fa565b8015610da65780601f10610d7b57610100808354040283529160200191610da6565b820191906000526020600020905b815481529060010190602001808311610d8957829003601f168201915b5050505050905084565b60036020528060005260406000206000915054906101000a900460ff1681565b60006020528060005260406000206000915054906101000a900460ff1681565b6000855111610dfe57600080fd5b6000845111610e0c57600080fd5b6000835111610e1a57600080fd5b600073ffffffffffffffffffffffffffffffffffffffff163373ffffffffffffffffffffffffffffffffffffffff161415610e5457600080fd5b600073ffffffffffffffffffffffffffffffffffffffff168273ffffffffffffffffffffffffffffffffffffffff161415610e8e57600080fd5b6000600460008473ffffffffffffffffffffffffffffffffffffffff1673ffffffffffffffffffffffffffffffffffffffff168152602001908152602001600020600501549050600181610ee2919061261a565b600460008573ffffffffffffffffffffffffffffffffffffffff1673ffffffffffffffffffffffffffffffffffffffff168152602001908152602001600020600501819055506001600754610f37919061261a565b60078190555060405180610100016040528060075481526020018781526020018681526020018581526020014281526020018473ffffffffffffffffffffffffffffffffffffffff1681526020013373ffffffffffffffffffffffffffffffffffffffff16815260200183815250600460008573ffffffffffffffffffffffffffffffffffffffff1673ffffffffffffffffffffffffffffffffffffffff168152602001908152602001600020600301600083815260200190815260200160002060008201518160000155602082015181600101908051906020019061101e929190611b6a565b50604082015181600201908051906020019061103b929190611b6a565b506060820151816003019080519060200190611058929190611b6a565b506080820151816004015560a08201518160050160006101000a81548173ffffffffffffffffffffffffffffffffffffffff021916908373ffffffffffffffffffffffffffffffffffffffff16021790555060c08201518160060160006101000a81548173ffffffffffffffffffffffffffffffffffffffff021916908373ffffffffffffffffffffffffffffffffffffffff16021790555060e082015181600701908051906020019061110d929190611b6a565b5090505060405180610100016040528060075481526020018781526020018681526020018581526020014281526020018473ffffffffffffffffffffffffffffffffffffffff1681526020013373ffffffffffffffffffffffffffffffffffffffff168152602001838152506008600060075481526020019081526020016000206000820151816000015560208201518160010190805190602001906111b4929190611b6a565b5060408201518160020190805190602001906111d1929190611b6a565b5060608201518160030190805190602001906111ee929190611b6a565b506080820151816004015560a08201518160050160006101000a81548173ffffffffffffffffffffffffffffffffffffffff021916908373ffffffffffffffffffffffffffffffffffffffff16021790555060c08201518160060160006101000a81548173ffffffffffffffffffffffffffffffffffffffff021916908373ffffffffffffffffffffffffffffffffffffffff16021790555060e08201518160070190805190602001906112a3929190611b6a565b509050507f864e41934e4850772a59542922a5dcfc7d079a6f65ba2b723334e9359e22d6596007548787874288336040516112e49796959493929190612479565b60405180910390a1505050505050565b60075481565b611302611c61565b6000600460008573ffffffffffffffffffffffffffffffffffffffff1673ffffffffffffffffffffffffffffffffffffffff16815260200190815260200160002060040160008481526020019081526020016000206040518060c0016040529081600082018054611372906126fa565b80601f016020809104026020016040519081016040528092919081815260200182805461139e906126fa565b80156113eb5780601f106113c0576101008083540402835291602001916113eb565b820191906000526020600020905b8154815290600101906020018083116113ce57829003601f168201915b50505050508152602001600182018054611404906126fa565b80601f0160208091040260200160405190810160405280929190818152602001828054611430906126fa565b801561147d5780601f106114525761010080835404028352916020019161147d565b820191906000526020600020905b81548152906001019060200180831161146057829003601f168201915b50505050508152602001600282018054611496906126fa565b80601f01602080910402602001604051908101604052809291908181526020018280546114c2906126fa565b801561150f5780601f106114e45761010080835404028352916020019161150f565b820191906000526020600020905b8154815290600101906020018083116114f257829003601f168201915b50505050508152602001600382015481526020016004820160009054906101000a900473ffffffffffffffffffffffffffffffffffffffff1673ffffffffffffffffffffffffffffffffffffffff1673ffffffffffffffffffffffffffffffffffffffff168152602001600582018054611588906126fa565b80601f01602080910402602001604051908101604052809291908181526020018280546115b4906126fa565b80156116015780601f106115d657610100808354040283529160200191611601565b820191906000526020600020905b8154815290600101906020018083116115e457829003601f168201915b50505050508152505090508091505092915050565b600860205280600052604060002060009150905080600001549080600101805461163f906126fa565b80601f016020809104026020016040519081016040528092919081815260200182805461166b906126fa565b80156116b85780601f1061168d576101008083540402835291602001916116b8565b820191906000526020600020905b81548152906001019060200180831161169b57829003601f168201915b5050505050908060020180546116cd906126fa565b80601f01602080910402602001604051908101604052809291908181526020018280546116f9906126fa565b80156117465780601f1061171b57610100808354040283529160200191611746565b820191906000526020600020905b81548152906001019060200180831161172957829003601f168201915b50505050509080600301805461175b906126fa565b80601f0160208091040260200160405190810160405280929190818152602001828054611787906126fa565b80156117d45780601f106117a9576101008083540402835291602001916117d4565b820191906000526020600020905b8154815290600101906020018083116117b757829003601f168201915b5050505050908060040154908060050160009054906101000a900473ffffffffffffffffffffffffffffffffffffffff16908060060160009054906101000a900473ffffffffffffffffffffffffffffffffffffffff169080600701805461183b906126fa565b80601f0160208091040260200160405190810160405280929190818152602001828054611867906126fa565b80156118b45780601f10611889576101008083540402835291602001916118b4565b820191906000526020600020905b81548152906001019060200180831161189757829003601f168201915b5050505050905088565b6008600087815260200190815260200160002060050160009054906101000a900473ffffffffffffffffffffffffffffffffffffffff1673ffffffffffffffffffffffffffffffffffffffff163373ffffffffffffffffffffffffffffffffffffffff161461192c57600080fd5b6000600460008473ffffffffffffffffffffffffffffffffffffffff1673ffffffffffffffffffffffffffffffffffffffff168152602001908152602001600020600601549050600181611980919061261a565b600460008573ffffffffffffffffffffffffffffffffffffffff1673ffffffffffffffffffffffffffffffffffffffff168152602001908152602001600020600601819055506040518060c001604052808781526020018681526020018581526020014281526020013373ffffffffffffffffffffffffffffffffffffffff16815260200183815250600460008573ffffffffffffffffffffffffffffffffffffffff1673ffffffffffffffffffffffffffffffffffffffff16815260200190815260200160002060040160008381526020019081526020016000206000820151816000019080519060200190611a78929190611b6a565b506020820151816001019080519060200190611a95929190611b6a565b506040820151816002019080519060200190611ab2929190611b6a565b506060820151816003015560808201518160040160006101000a81548173ffffffffffffffffffffffffffffffffffffffff021916908373ffffffffffffffffffffffffffffffffffffffff16021790555060a0820151816005019080519060200190611b20929190611b6a565b509050507fce07487017d5a4651c43293790334b4db68aaf08310d9089076c5ffb40bd30bf86423386604051611b5994939291906123ce565b60405180910390a150505050505050565b828054611b76906126fa565b90600052602060002090601f016020900481019282611b985760008555611bdf565b82601f10611bb157805160ff1916838001178555611bdf565b82800160010185558215611bdf579182015b82811115611bde578251825591602001919060010190611bc3565b5b509050611bec9190611cad565b5090565b6040518061010001604052806000815260200160608152602001606081526020016060815260200160008152602001600073ffffffffffffffffffffffffffffffffffffffff168152602001600073ffffffffffffffffffffffffffffffffffffffff168152602001606081525090565b6040518060c0016040528060608152602001606081526020016060815260200160008152602001600073ffffffffffffffffffffffffffffffffffffffff168152602001606081525090565b5b80821115611cc6576000816000905550600101611cae565b5090565b6000611cdd611cd8846125bc565b612597565b905082815260208101848484011115611cf557600080fd5b611d008482856126b8565b509392505050565b600081359050611d17816127fb565b92915050565b600082601f830112611d2e57600080fd5b8135611d3e848260208601611cca565b91505092915050565b600081359050611d5681612812565b92915050565b600060208284031215611d6e57600080fd5b6000611d7c84828501611d08565b91505092915050565b60008060008060808587031215611d9b57600080fd5b6000611da987828801611d08565b945050602085013567ffffffffffffffff811115611dc657600080fd5b611dd287828801611d1d565b935050604085013567ffffffffffffffff811115611def57600080fd5b611dfb87828801611d1d565b925050606085013567ffffffffffffffff811115611e1857600080fd5b611e2487828801611d1d565b91505092959194509250565b60008060408385031215611e4357600080fd5b6000611e5185828601611d08565b9250506020611e6285828601611d47565b9150509250929050565b600080600080600060a08688031215611e8457600080fd5b600086013567ffffffffffffffff811115611e9e57600080fd5b611eaa88828901611d1d565b955050602086013567ffffffffffffffff811115611ec757600080fd5b611ed388828901611d1d565b945050604086013567ffffffffffffffff811115611ef057600080fd5b611efc88828901611d1d565b9350506060611f0d88828901611d08565b925050608086013567ffffffffffffffff811115611f2a57600080fd5b611f3688828901611d1d565b9150509295509295909350565b600060208284031215611f5557600080fd5b6000611f6384828501611d47565b91505092915050565b60008060008060008060c08789031215611f8557600080fd5b6000611f9389828a01611d47565b965050602087013567ffffffffffffffff811115611fb057600080fd5b611fbc89828a01611d1d565b955050604087013567ffffffffffffffff811115611fd957600080fd5b611fe589828a01611d1d565b945050606087013567ffffffffffffffff81111561200257600080fd5b61200e89828a01611d1d565b935050608061201f89828a01611d08565b92505060a087013567ffffffffffffffff81111561203c57600080fd5b61204889828a01611d1d565b9150509295509295509295565b61205e81612670565b82525050565b61206d81612670565b82525050565b61207c81612682565b82525050565b600061208d826125ed565b61209781856125f8565b93506120a78185602086016126c7565b6120b0816127ea565b840191505092915050565b60006120c6826125ed565b6120d08185612609565b93506120e08185602086016126c7565b6120e9816127ea565b840191505092915050565b60006101008301600083015161210d6000860182612257565b50602083015184820360208601526121258282612082565b9150506040830151848203604086015261213f8282612082565b915050606083015184820360608601526121598282612082565b915050608083015161216e6080860182612257565b5060a083015161218160a0860182612055565b5060c083015161219460c0860182612055565b5060e083015184820360e08601526121ac8282612082565b9150508091505092915050565b600060c08301600083015184820360008601526121d68282612082565b915050602083015184820360208601526121f08282612082565b9150506040830151848203604086015261220a8282612082565b915050606083015161221f6060860182612257565b5060808301516122326080860182612055565b5060a083015184820360a086015261224a8282612082565b9150508091505092915050565b612260816126ae565b82525050565b61226f816126ae565b82525050565b600060208201905061228a6000830184612064565b92915050565b60006080820190506122a56000830187612064565b81810360208301526122b781866120bb565b905081810360408301526122cb81856120bb565b905081810360608301526122df81846120bb565b905095945050505050565b60006020820190506122ff6000830184612073565b92915050565b6000608082019050818103600083015261231f81876120bb565b9050818103602083015261233381866120bb565b9050818103604083015261234781856120bb565b9050818103606083015261235b81846120bb565b905095945050505050565b600060a082019050818103600083015261238081886120bb565b9050818103602083015261239481876120bb565b905081810360408301526123a881866120bb565b90506123b76060830185612266565b6123c46080830184612266565b9695505050505050565b600060808201905081810360008301526123e881876120bb565b90506123f76020830186612266565b6124046040830185612064565b6124116060830184612064565b95945050505050565b6000602082019050818103600083015261243481846120f4565b905092915050565b6000602082019050818103600083015261245681846121b9565b905092915050565b60006020820190506124736000830184612266565b92915050565b600060e08201905061248e600083018a612266565b81810360208301526124a081896120bb565b905081810360408301526124b481886120bb565b905081810360608301526124c881876120bb565b90506124d76080830186612266565b6124e460a0830185612064565b6124f160c0830184612064565b98975050505050505050565b600061010082019050612513600083018b612266565b8181036020830152612525818a6120bb565b9050818103604083015261253981896120bb565b9050818103606083015261254d81886120bb565b905061255c6080830187612266565b61256960a0830186612064565b61257660c0830185612064565b81810360e083015261258881846120bb565b90509998505050505050505050565b60006125a16125b2565b90506125ad828261272c565b919050565b6000604051905090565b600067ffffffffffffffff8211156125d7576125d66127bb565b5b6125e0826127ea565b9050602081019050919050565b600081519050919050565b600082825260208201905092915050565b600082825260208201905092915050565b6000612625826126ae565b9150612630836126ae565b9250827fffffffffffffffffffffffffffffffffffffffffffffffffffffffffffffffff038211156126655761266461275d565b5b828201905092915050565b600061267b8261268e565b9050919050565b60008115159050919050565b600073ffffffffffffffffffffffffffffffffffffffff82169050919050565b6000819050919050565b82818337600083830152505050565b60005b838110156126e55780820151818401526020810190506126ca565b838111156126f4576000848401525b50505050565b6000600282049050600182168061271257607f821691505b602082108114156127265761272561278c565b5b50919050565b612735826127ea565b810181811067ffffffffffffffff82111715612754576127536127bb565b5b80604052505050565b7f4e487b7100000000000000000000000000000000000000000000000000000000600052601160045260246000fd5b7f4e487b7100000000000000000000000000000000000000000000000000000000600052602260045260246000fd5b7f4e487b7100000000000000000000000000000000000000000000000000000000600052604160045260246000fd5b6000601f19601f8301169050919050565b61280481612670565b811461280f57600080fd5b50565b61281b816126ae565b811461282657600080fd5b5056fea26469706673582212203b82d7c10c46447d4183121908475d075050c5416966a3f236ccb49cea7d351b64736f6c634300080300334d4673774451594a4b6f5a496876634e41514542425141445367417752774a4164564c6e2f7950477337396a44383173627376596c7a44303238737779764f4e364f2f34444b476f386c2f46736e376c52532f534b6e385a55424e434d3958555774693443324f76574b614532504854764630764e514944415141424d4947664d413047435371475349623344514542415155414134474e4144434269514b42675144633167777a44414234636167674d3259664e5a436d75316641762f6c46306c5767614f7133777648794c7477325468677535367957705143702f444e457934497367427430634f5350305353544e47503156313334674a42716974736e6f725a65306452694f2f364161535a432f6d46415145673861682f4852736750433347517957763752594d4369337161702b71314d386e444f4e45664e42435069626541437978394d447a7641774944415141424d4677774451594a4b6f5a496876634e41514542425141445377417753414a42414b51673376554c747230354f566b643150567362566d784d4a694d7730724a516a632f7367454d7a6f4b434434773931552b656c6a436e4b59474c4d6d4a7676594b464e46514244764f337154635633617065696c30434177454141513d3d",
  "immutableReferences": {},
  "source": "// SPDX-License-Identifier: MIT\r\npragma solidity ^0.8.3;\r\n\r\ncontract SmartContract {\r\n\t\r\n\tmapping (address => bool) public isDoctor;\r\n\r\n    event patientAdded(\r\n    \taddress patientaddress,\r\n    \tstring firstname,\r\n    \tstring lastname,\r\n    \tstring pubKey\r\n    );\r\n\r\n    event recordAdded(\r\n    \tuint yourFilesCounter, \r\n    \tstring hash, \r\n    \tstring name,\r\n    \tstring description,\r\n    \tuint time,\r\n    \taddress owner,\r\n    \taddress uploader\r\n    );\r\n\r\n    event recordShared(\r\n    \tstring hash, \r\n    \tuint time,\r\n    \taddress owner,\r\n    \taddress provider\r\n    );\r\n\r\n\t\r\n\r\n\tmodifier OnlyPatient(){\r\n        require(isPatient[msg.sender] == true);\r\n        _;\r\n    }\r\n\r\n\tstruct Doctor {\r\n\t\tstring firstname;\r\n\t    string lastname;\r\n\t    string pubKey;\r\n\t    string specialization;\r\n\t}\r\n\r\n\tmodifier OnlyDoctor(){\r\n        require(isDoctor[msg.sender] == true);\r\n        _;\r\n    }\r\n\r\n\tconstructor() public {\r\n\t\tisDoctor[0x39f573c0f078847939AAEeEDca6BEe1cFE772086] = true;\r\n\t    doctormapping[0x39f573c0f078847939AAEeEDca6BEe1cFE772086].firstname = \"Dr\";\r\n\t    doctormapping[0x39f573c0f078847939AAEeEDca6BEe1cFE772086].lastname = \"Dre\";\r\n\t    doctormapping[0x39f573c0f078847939AAEeEDca6BEe1cFE772086].pubKey = \"MIGfMA0GCSqGSIb3DQEBAQUAA4GNADCBiQKBgQDc1gwzDAB4caggM2YfNZCmu1fAv/lF0lWgaOq3wvHyLtw2Thgu56yWpQCp/DNEy4IsgBt0cOSP0SSTNGP1V134gJBqitsnorZe0dRiO/6AaSZC/mFAQEg8ah/HRsgPC3GQyWv7RYMCi3qap+q1M8nDONEfNBCPibeACyx9MDzvAwIDAQAB\";\r\n\t    doctormapping[0x39f573c0f078847939AAEeEDca6BEe1cFE772086].specialization = \"Cardiologist\";\r\n\t    doctorAdd.push(0x39f573c0f078847939AAEeEDca6BEe1cFE772086);\r\n\r\n\t    isDoctor[0x69fD5F300FAac374A89a4C785D6941C33e97d2E6] = true;\r\n\t    doctormapping[0x69fD5F300FAac374A89a4C785D6941C33e97d2E6].firstname = \"Dr\";\r\n\t    doctormapping[0x69fD5F300FAac374A89a4C785D6941C33e97d2E6].lastname = \"Oetker\";\r\n\t    doctormapping[0x69fD5F300FAac374A89a4C785D6941C33e97d2E6].pubKey = \"MFwwDQYJKoZIhvcNAQEBBQADSwAwSAJBAKQg3vULtr05OVkd1PVsbVmxMJiMw0rJQjc/sgEMzoKCD4w91U+eljCnKYGLMmJvvYKFNFQBDvO3qTcV3apeil0CAwEAAQ==\";\r\n\t    doctormapping[0x69fD5F300FAac374A89a4C785D6941C33e97d2E6].specialization = \"Pediatrician\";\r\n\t    doctorAdd.push(0x69fD5F300FAac374A89a4C785D6941C33e97d2E6);\r\n\r\n\t    isDoctor[0xAFfa5DEb9b4aA5F1d3d722b82D64079fFa0e8bC2] = true;\r\n\t    doctormapping[0xAFfa5DEb9b4aA5F1d3d722b82D64079fFa0e8bC2].firstname = \"Dr\";\r\n\t    doctormapping[0xAFfa5DEb9b4aA5F1d3d722b82D64079fFa0e8bC2].lastname = \"Gerard\";\r\n\t    doctormapping[0xAFfa5DEb9b4aA5F1d3d722b82D64079fFa0e8bC2].pubKey = \"MFswDQYJKoZIhvcNAQEBBQADSgAwRwJAdVLn/yPGs79jD81sbsvYlzD028swyvON6O/4DKGo8l/Fsn7lRS/SKn8ZUBNCM9XUWti4C2OvWKaE2PHTvF0vNQIDAQAB\";\r\n\t    doctormapping[0xAFfa5DEb9b4aA5F1d3d722b82D64079fFa0e8bC2].specialization = \"Immunologist\";\r\n\t    doctorAdd.push(0xAFfa5DEb9b4aA5F1d3d722b82D64079fFa0e8bC2);\r\n\t}\r\n\t\r\n\r\n\r\n\t\r\n\tmapping (address => Doctor) public doctormapping;\r\n\taddress[] public doctorAdd;\r\n\r\n\tstruct Patient {\r\n\t    string firstname;\r\n\t    string lastname;\r\n\t    string pubKey;\r\n        mapping (uint => File) yourfiles;\r\n        mapping (uint => SharedFile) sharedWithYou;\r\n        uint yourFilesCounter;\r\n        uint sharedWithYouCounter;\r\n\t}\r\n\t\r\n\tmapping (address => bool) public isPatient;\r\n\tmapping (address => Patient) public patientmapping;\r\n\taddress[] public patientAdd;\r\n\r\n\tfunction addPatient(address _patientaddress, string memory _firstname, string memory _lastname, string memory _pubKey) public {\r\n\t    isPatient[_patientaddress] = true;\r\n\t    patientmapping[_patientaddress].firstname = _firstname;\r\n\t    patientmapping[_patientaddress].lastname = _lastname;\r\n\t    patientmapping[_patientaddress].pubKey = _pubKey;\r\n        patientmapping[_patientaddress].yourFilesCounter = 0;\r\n        patientmapping[_patientaddress].sharedWithYouCounter = 0;\r\n\t    patientAdd.push(_patientaddress);\r\n\t            \r\n\t    emit patientAdded(_patientaddress, _firstname, _lastname, _pubKey);\r\n\t}\r\n\r\n\tmapping (address => bool) canView;\r\n\r\n\r\n\tstruct SharedFile {\r\n\t    string hash;\r\n\t    string name;\r\n\t    string description;\r\n\t    uint date;\r\n\t    address owner;\r\n\t    string key;\r\n\t}\r\n\r\n\r\n\tfunction share(uint id, string memory hash, string memory name, string memory description, address provider, string memory key) public{\r\n\t\trequire(msg.sender == filemapping[id].owner);\r\n\r\n        uint counter = patientmapping[provider].sharedWithYouCounter;\r\n\t\tpatientmapping[provider].sharedWithYouCounter = counter + 1;\r\n        patientmapping[provider].sharedWithYou[counter] = SharedFile(hash, name, description, block.timestamp, msg.sender, key);\r\n        \r\n        emit recordShared(hash, block.timestamp, msg.sender, provider);\r\n    }\r\n\r\n\tstruct File {\r\n\t    uint id;\r\n\t    string hash;\r\n\t    string name;\r\n\t    string description;\r\n\t    uint date;\r\n\t    address owner;\r\n\t    address uploader;\r\n\t    string key;\r\n\t}\r\n\t\r\n\tuint public id = 0;    \r\n\tmapping (uint => File) public filemapping;\r\n\t\r\n\r\n\tfunction addRecord(string memory _hash, string memory _name, string memory _description, address _owner, string memory key) public {\r\n\t\trequire (bytes(_hash).length > 0);\r\n\t\trequire (bytes(_name).length > 0);\r\n\t\trequire (bytes(_description).length > 0);\r\n\t\trequire (msg.sender!=address(0));\r\n\t\trequire (_owner!=address(0));\r\n\t\tuint counter = patientmapping[_owner].yourFilesCounter;\r\n\t\tpatientmapping[_owner].yourFilesCounter = counter + 1;\r\n\r\n\t\tid = id + 1;\r\n        patientmapping[_owner].yourfiles[counter] = File(id, _hash, _name, _description, block.timestamp, _owner, msg.sender, key);\r\n        \r\n        \r\n\t\tfilemapping[id] = File(id, _hash, _name, _description, block.timestamp, _owner, msg.sender, key);\r\n\t\temit recordAdded(id, _hash, _name, _description, block.timestamp, _owner, msg.sender);\t\t\r\n\t}\r\n\r\n    function getPatientFiles(address patientAddress, uint index) public  view  returns  (File memory) {\r\n\t\tFile memory file = patientmapping[patientAddress].yourfiles[index];\r\n\t\treturn file;\r\n\t}\r\n\r\n\tfunction getSharedWithYouFiles(address patientAddress, uint index) public  view  returns  (SharedFile memory) {\r\n\t\tSharedFile memory sharedFile = patientmapping[patientAddress].sharedWithYou[index];\r\n\t\treturn sharedFile;\r\n\t}\r\n}",
  "sourcePath": "D:\\PracaInz\\StorageOfMedicalDataWithSupportOfBlockchainTechnology\\contracts\\SmartContract.sol",
  "compiler": {
    "name": "solc",
    "version": "0.8.3+commit.8d00100c.Emscripten.clang"
  },
  "schemaVersion": "3.4.4",
  "updatedAt": "2022-01-29T20:48:28.268Z",
  "devdoc": {
    "kind": "dev",
    "methods": {},
    "version": 1
  },
  "userdoc": {
    "kind": "user",
    "methods": {},
    "version": 1
  }
}