{
  "contractName": "SmartContract",
  "abi": [
    {
      "anonymous": false,
      "inputs": [
        {
          "indexed": false,
          "internalType": "address",
          "name": "patientaddress",
          "type": "address"
        },
        {
          "indexed": false,
          "internalType": "string",
          "name": "firstname",
          "type": "string"
        },
        {
          "indexed": false,
          "internalType": "string",
          "name": "lastname",
          "type": "string"
        },
        {
          "indexed": false,
          "internalType": "string",
          "name": "pubKey",
          "type": "string"
        }
      ],
      "name": "patientAdded",
      "type": "event"
    },
    {
      "anonymous": false,
      "inputs": [
        {
          "indexed": false,
          "internalType": "uint256",
          "name": "fileCounter",
          "type": "uint256"
        },
        {
          "indexed": false,
          "internalType": "string",
          "name": "hash",
          "type": "string"
        },
        {
          "indexed": false,
          "internalType": "string",
          "name": "name",
          "type": "string"
        },
        {
          "indexed": false,
          "internalType": "string",
          "name": "description",
          "type": "string"
        },
        {
          "indexed": false,
          "internalType": "uint256",
          "name": "time",
          "type": "uint256"
        },
        {
          "indexed": false,
          "internalType": "address",
          "name": "owner",
          "type": "address"
        },
        {
          "indexed": false,
          "internalType": "address",
          "name": "uploader",
          "type": "address"
        }
      ],
      "name": "recordAdded",
      "type": "event"
    },
    {
      "inputs": [
        {
          "internalType": "uint256",
          "name": "",
          "type": "uint256"
        }
      ],
      "name": "filemapping",
      "outputs": [
        {
          "internalType": "uint256",
          "name": "id",
          "type": "uint256"
        },
        {
          "internalType": "string",
          "name": "hash",
          "type": "string"
        },
        {
          "internalType": "string",
          "name": "name",
          "type": "string"
        },
        {
          "internalType": "string",
          "name": "description",
          "type": "string"
        },
        {
          "internalType": "uint256",
          "name": "date",
          "type": "uint256"
        },
        {
          "internalType": "address",
          "name": "owner",
          "type": "address"
        },
        {
          "internalType": "address",
          "name": "uploader",
          "type": "address"
        }
      ],
      "stateMutability": "view",
      "type": "function",
      "constant": true
    },
    {
      "inputs": [
        {
          "internalType": "address",
          "name": "",
          "type": "address"
        }
      ],
      "name": "isPatient",
      "outputs": [
        {
          "internalType": "bool",
          "name": "",
          "type": "bool"
        }
      ],
      "stateMutability": "view",
      "type": "function",
      "constant": true
    },
    {
      "inputs": [
        {
          "internalType": "uint256",
          "name": "",
          "type": "uint256"
        }
      ],
      "name": "patientAdd",
      "outputs": [
        {
          "internalType": "address",
          "name": "",
          "type": "address"
        }
      ],
      "stateMutability": "view",
      "type": "function",
      "constant": true
    },
    {
      "inputs": [
        {
          "internalType": "address",
          "name": "",
          "type": "address"
        }
      ],
      "name": "patientmapping",
      "outputs": [
        {
          "internalType": "string",
          "name": "firstname",
          "type": "string"
        },
        {
          "internalType": "string",
          "name": "lastname",
          "type": "string"
        },
        {
          "internalType": "string",
          "name": "pubKey",
          "type": "string"
        }
      ],
      "stateMutability": "view",
      "type": "function",
      "constant": true
    },
    {
      "inputs": [
        {
          "internalType": "address",
          "name": "_patientaddress",
          "type": "address"
        },
        {
          "internalType": "string",
          "name": "_firstname",
          "type": "string"
        },
        {
          "internalType": "string",
          "name": "_lastname",
          "type": "string"
        },
        {
          "internalType": "string",
          "name": "_pubKey",
          "type": "string"
        }
      ],
      "name": "addPatient",
      "outputs": [],
      "stateMutability": "nonpayable",
      "type": "function"
    },
    {
      "inputs": [
        {
          "internalType": "string",
          "name": "_hash",
          "type": "string"
        },
        {
          "internalType": "string",
          "name": "_name",
          "type": "string"
        },
        {
          "internalType": "string",
          "name": "_description",
          "type": "string"
        },
        {
          "internalType": "address",
          "name": "_owner",
          "type": "address"
        }
      ],
      "name": "addRecord",
      "outputs": [],
      "stateMutability": "nonpayable",
      "type": "function"
    }
  ],
  "bytecode": "0x6080604052600060035534801561001557600080fd5b5061116e806100256000396000f3fe608060405234801561001057600080fd5b50600436106100625760003560e01c80632c76361f146100675780633731b331146100835780633da8533e146100b35780638f9c79ed146100e5578063bb9c3c3514610115578063c5df635414610131575b600080fd5b610081600480360381019061007c9190610b72565b610167565b005b61009d60048036038101906100989190610cc8565b610369565b6040516100aa9190610d57565b60405180910390f35b6100cd60048036038101906100c89190610b49565b6103a8565b6040516100dc93929190610de7565b60405180910390f35b6100ff60048036038101906100fa9190610b49565b61056a565b60405161010c9190610dcc565b60405180910390f35b61012f600480360381019061012a9190610c1d565b61058a565b005b61014b60048036038101906101469190610cc8565b6107fa565b60405161015e9796959493929190610e33565b60405180910390f35b60016000808673ffffffffffffffffffffffffffffffffffffffff1673ffffffffffffffffffffffffffffffffffffffff16815260200190815260200160002060006101000a81548160ff02191690831515021790555082600160008673ffffffffffffffffffffffffffffffffffffffff1673ffffffffffffffffffffffffffffffffffffffff1681526020019081526020016000206000019080519060200190610214929190610a14565b5081600160008673ffffffffffffffffffffffffffffffffffffffff1673ffffffffffffffffffffffffffffffffffffffff168152602001908152602001600020600101908051906020019061026b929190610a14565b5080600160008673ffffffffffffffffffffffffffffffffffffffff1673ffffffffffffffffffffffffffffffffffffffff16815260200190815260200160002060020190805190602001906102c2929190610a14565b506002849080600181540180825580915050600190039060005260206000200160009091909190916101000a81548173ffffffffffffffffffffffffffffffffffffffff021916908373ffffffffffffffffffffffffffffffffffffffff1602179055507f9090b1afe6a1ac47175007fa1e1df478243b433f6944c4f118955af6ef2b43728484848460405161035b9493929190610d72565b60405180910390a150505050565b6002818154811061037957600080fd5b906000526020600020016000915054906101000a900473ffffffffffffffffffffffffffffffffffffffff1681565b60016020528060005260406000206000915090508060000180546103cb90611009565b80601f01602080910402602001604051908101604052809291908181526020018280546103f790611009565b80156104445780601f1061041957610100808354040283529160200191610444565b820191906000526020600020905b81548152906001019060200180831161042757829003601f168201915b50505050509080600101805461045990611009565b80601f016020809104026020016040519081016040528092919081815260200182805461048590611009565b80156104d25780601f106104a7576101008083540402835291602001916104d2565b820191906000526020600020905b8154815290600101906020018083116104b557829003601f168201915b5050505050908060020180546104e790611009565b80601f016020809104026020016040519081016040528092919081815260200182805461051390611009565b80156105605780601f1061053557610100808354040283529160200191610560565b820191906000526020600020905b81548152906001019060200180831161054357829003601f168201915b5050505050905083565b60006020528060005260406000206000915054906101000a900460ff1681565b600084511161059857600080fd5b60008351116105a657600080fd5b60008251116105b457600080fd5b600073ffffffffffffffffffffffffffffffffffffffff163373ffffffffffffffffffffffffffffffffffffffff1614156105ee57600080fd5b600073ffffffffffffffffffffffffffffffffffffffff168173ffffffffffffffffffffffffffffffffffffffff16141561062857600080fd5b60016003546106379190610f29565b6003819055506040518060e0016040528060035481526020018581526020018481526020018381526020014281526020018273ffffffffffffffffffffffffffffffffffffffff1681526020013373ffffffffffffffffffffffffffffffffffffffff168152506004600060035481526020019081526020016000206000820151816000015560208201518160010190805190602001906106d9929190610a14565b5060408201518160020190805190602001906106f6929190610a14565b506060820151816003019080519060200190610713929190610a14565b506080820151816004015560a08201518160050160006101000a81548173ffffffffffffffffffffffffffffffffffffffff021916908373ffffffffffffffffffffffffffffffffffffffff16021790555060c08201518160060160006101000a81548173ffffffffffffffffffffffffffffffffffffffff021916908373ffffffffffffffffffffffffffffffffffffffff1602179055509050507f864e41934e4850772a59542922a5dcfc7d079a6f65ba2b723334e9359e22d6596003548585854286336040516107ec9796959493929190610e33565b60405180910390a150505050565b600460205280600052604060002060009150905080600001549080600101805461082390611009565b80601f016020809104026020016040519081016040528092919081815260200182805461084f90611009565b801561089c5780601f106108715761010080835404028352916020019161089c565b820191906000526020600020905b81548152906001019060200180831161087f57829003601f168201915b5050505050908060020180546108b190611009565b80601f01602080910402602001604051908101604052809291908181526020018280546108dd90611009565b801561092a5780601f106108ff5761010080835404028352916020019161092a565b820191906000526020600020905b81548152906001019060200180831161090d57829003601f168201915b50505050509080600301805461093f90611009565b80601f016020809104026020016040519081016040528092919081815260200182805461096b90611009565b80156109b85780601f1061098d576101008083540402835291602001916109b8565b820191906000526020600020905b81548152906001019060200180831161099b57829003601f168201915b5050505050908060040154908060050160009054906101000a900473ffffffffffffffffffffffffffffffffffffffff16908060060160009054906101000a900473ffffffffffffffffffffffffffffffffffffffff16905087565b828054610a2090611009565b90600052602060002090601f016020900481019282610a425760008555610a89565b82601f10610a5b57805160ff1916838001178555610a89565b82800160010185558215610a89579182015b82811115610a88578251825591602001919060010190610a6d565b5b509050610a969190610a9a565b5090565b5b80821115610ab3576000816000905550600101610a9b565b5090565b6000610aca610ac584610edc565b610eb7565b905082815260208101848484011115610ae257600080fd5b610aed848285610fc7565b509392505050565b600081359050610b048161110a565b92915050565b600082601f830112610b1b57600080fd5b8135610b2b848260208601610ab7565b91505092915050565b600081359050610b4381611121565b92915050565b600060208284031215610b5b57600080fd5b6000610b6984828501610af5565b91505092915050565b60008060008060808587031215610b8857600080fd5b6000610b9687828801610af5565b945050602085013567ffffffffffffffff811115610bb357600080fd5b610bbf87828801610b0a565b935050604085013567ffffffffffffffff811115610bdc57600080fd5b610be887828801610b0a565b925050606085013567ffffffffffffffff811115610c0557600080fd5b610c1187828801610b0a565b91505092959194509250565b60008060008060808587031215610c3357600080fd5b600085013567ffffffffffffffff811115610c4d57600080fd5b610c5987828801610b0a565b945050602085013567ffffffffffffffff811115610c7657600080fd5b610c8287828801610b0a565b935050604085013567ffffffffffffffff811115610c9f57600080fd5b610cab87828801610b0a565b9250506060610cbc87828801610af5565b91505092959194509250565b600060208284031215610cda57600080fd5b6000610ce884828501610b34565b91505092915050565b610cfa81610f7f565b82525050565b610d0981610f91565b82525050565b6000610d1a82610f0d565b610d248185610f18565b9350610d34818560208601610fd6565b610d3d816110f9565b840191505092915050565b610d5181610fbd565b82525050565b6000602082019050610d6c6000830184610cf1565b92915050565b6000608082019050610d876000830187610cf1565b8181036020830152610d998186610d0f565b90508181036040830152610dad8185610d0f565b90508181036060830152610dc18184610d0f565b905095945050505050565b6000602082019050610de16000830184610d00565b92915050565b60006060820190508181036000830152610e018186610d0f565b90508181036020830152610e158185610d0f565b90508181036040830152610e298184610d0f565b9050949350505050565b600060e082019050610e48600083018a610d48565b8181036020830152610e5a8189610d0f565b90508181036040830152610e6e8188610d0f565b90508181036060830152610e828187610d0f565b9050610e916080830186610d48565b610e9e60a0830185610cf1565b610eab60c0830184610cf1565b98975050505050505050565b6000610ec1610ed2565b9050610ecd828261103b565b919050565b6000604051905090565b600067ffffffffffffffff821115610ef757610ef66110ca565b5b610f00826110f9565b9050602081019050919050565b600081519050919050565b600082825260208201905092915050565b6000610f3482610fbd565b9150610f3f83610fbd565b9250827fffffffffffffffffffffffffffffffffffffffffffffffffffffffffffffffff03821115610f7457610f7361106c565b5b828201905092915050565b6000610f8a82610f9d565b9050919050565b60008115159050919050565b600073ffffffffffffffffffffffffffffffffffffffff82169050919050565b6000819050919050565b82818337600083830152505050565b60005b83811015610ff4578082015181840152602081019050610fd9565b83811115611003576000848401525b50505050565b6000600282049050600182168061102157607f821691505b602082108114156110355761103461109b565b5b50919050565b611044826110f9565b810181811067ffffffffffffffff82111715611063576110626110ca565b5b80604052505050565b7f4e487b7100000000000000000000000000000000000000000000000000000000600052601160045260246000fd5b7f4e487b7100000000000000000000000000000000000000000000000000000000600052602260045260246000fd5b7f4e487b7100000000000000000000000000000000000000000000000000000000600052604160045260246000fd5b6000601f19601f8301169050919050565b61111381610f7f565b811461111e57600080fd5b50565b61112a81610fbd565b811461113557600080fd5b5056fea264697066735822122059b250063995139c127e7b9dddedb95e7e3e12ca417b2e1e524a269e9c2ae1af64736f6c63430008030033",
  "immutableReferences": {},
  "source": "// SPDX-License-Identifier: MIT\r\npragma solidity ^0.8.3;\r\n\r\ncontract SmartContract {\r\n\tmapping (address => bool) public isPatient;\r\n\r\n    event patientAdded(\r\n    \taddress patientaddress,\r\n    \tstring firstname,\r\n    \tstring lastname,\r\n    \tstring pubKey\r\n    );\r\n    event recordAdded(\r\n    \tuint fileCounter, \r\n    \tstring hash, \r\n    \tstring name,\r\n    \tstring description,\r\n    \tuint time,\r\n    \taddress owner,\r\n    \taddress uploader\r\n    );\r\n\r\n\tstruct Patient {\r\n\t    string firstname;\r\n\t    string lastname;\r\n\t    string pubKey;\r\n\t}\r\n\t    \r\n\tmapping (address => Patient) public patientmapping;\r\n\taddress[] public patientAdd;\r\n\r\n\tfunction addPatient(address _patientaddress, string memory _firstname, string memory _lastname, string memory _pubKey) public {\r\n\t    isPatient[_patientaddress] = true;\r\n\t    patientmapping[_patientaddress].firstname = _firstname;\r\n\t    patientmapping[_patientaddress].lastname = _lastname;\r\n\t    patientmapping[_patientaddress].pubKey = _pubKey;\r\n\t    patientAdd.push(_patientaddress);\r\n\t            \r\n\t    emit patientAdded(_patientaddress, _firstname, _lastname, _pubKey);\r\n\t}\r\n\r\n\tstruct File {\r\n\t    uint id;\r\n\t    string hash;\r\n\t    string name;\r\n\t    string description;\r\n\t    uint date;\r\n\t    address owner;\r\n\t    address uploader;\r\n\t}\r\n\t\r\n\tuint fileCounter = 0;    \r\n\tmapping (uint => File) public filemapping;\r\n\t\r\n\r\n\tfunction addRecord(string memory _hash, string memory _name, string memory _description, address _owner) public {\r\n\t\trequire (bytes(_hash).length > 0);\r\n\t\trequire (bytes(_name).length > 0);\r\n\t\trequire (bytes(_description).length > 0);\r\n\t\trequire(msg.sender!=address(0));\r\n\t\trequire(_owner!=address(0));\r\n\t\tfileCounter = fileCounter + 1;\r\n\t\tfilemapping[fileCounter] = File(fileCounter, _hash, _name, _description, block.timestamp, _owner, msg.sender);\r\n\t\temit recordAdded(fileCounter, _hash, _name, _description, block.timestamp, _owner, msg.sender);\r\n\t\t\r\n\t}\r\n}",
  "sourcePath": "D:\\PracaInz\\StorageOfMedicalDataWithSupportOfBlockchainTechnology\\contracts\\SmartContract.sol",
  "compiler": {
    "name": "solc",
    "version": "0.8.3+commit.8d00100c.Emscripten.clang"
  },
  "schemaVersion": "3.4.4",
  "updatedAt": "2022-01-06T14:12:52.730Z",
  "networkType": "ethereum",
  "devdoc": {
    "kind": "dev",
    "methods": {},
    "version": 1
  },
  "userdoc": {
    "kind": "user",
    "methods": {},
    "version": 1
  }
}