{
  "contractName": "User",
  "abi": [
    {
      "anonymous": false,
      "inputs": [
        {
          "indexed": false,
          "internalType": "string",
          "name": "info",
          "type": "string"
        },
        {
          "indexed": false,
          "internalType": "address",
          "name": "useraddress",
          "type": "address"
        },
        {
          "indexed": false,
          "internalType": "string",
          "name": "firstname",
          "type": "string"
        },
        {
          "indexed": false,
          "internalType": "string",
          "name": "lastname",
          "type": "string"
        },
        {
          "indexed": false,
          "internalType": "string",
          "name": "pesel",
          "type": "string"
        }
      ],
      "name": "userAdded",
      "type": "event"
    },
    {
      "inputs": [
        {
          "internalType": "address",
          "name": "",
          "type": "address"
        }
      ],
      "name": "isUser",
      "outputs": [
        {
          "internalType": "bool",
          "name": "",
          "type": "bool"
        }
      ],
      "stateMutability": "view",
      "type": "function",
      "constant": true
    },
    {
      "inputs": [
        {
          "internalType": "uint256",
          "name": "",
          "type": "uint256"
        }
      ],
      "name": "usersAdd",
      "outputs": [
        {
          "internalType": "address",
          "name": "",
          "type": "address"
        }
      ],
      "stateMutability": "view",
      "type": "function",
      "constant": true
    },
    {
      "inputs": [
        {
          "internalType": "address",
          "name": "",
          "type": "address"
        }
      ],
      "name": "usersmapping",
      "outputs": [
        {
          "internalType": "string",
          "name": "firstname",
          "type": "string"
        },
        {
          "internalType": "string",
          "name": "lastname",
          "type": "string"
        },
        {
          "internalType": "string",
          "name": "pesel",
          "type": "string"
        }
      ],
      "stateMutability": "view",
      "type": "function",
      "constant": true
    },
    {
      "inputs": [
        {
          "internalType": "address",
          "name": "_useraddress",
          "type": "address"
        },
        {
          "internalType": "string",
          "name": "_firstname",
          "type": "string"
        },
        {
          "internalType": "string",
          "name": "_lastname",
          "type": "string"
        },
        {
          "internalType": "string",
          "name": "pesel",
          "type": "string"
        }
      ],
      "name": "addUser",
      "outputs": [],
      "stateMutability": "nonpayable",
      "type": "function"
    }
  ],
  "bytecode": "0x608060405234801561001057600080fd5b50610b18806100206000396000f3fe608060405234801561001057600080fd5b506004361061004c5760003560e01c8063314651d9146100515780634209fff114610081578063c6361c22146100b1578063f1bd271c146100cd575b600080fd5b61006b6004803603810190610066919061072b565b6100ff565b60405161007891906107ce565b60405180910390f35b61009b60048036038101906100969190610657565b61013e565b6040516100a891906107e9565b60405180910390f35b6100cb60048036038101906100c69190610680565b61015e565b005b6100e760048036038101906100e29190610657565b610360565b6040516100f693929190610804565b60405180910390f35b6002818154811061010f57600080fd5b906000526020600020016000915054906101000a900473ffffffffffffffffffffffffffffffffffffffff1681565b60006020528060005260406000206000915054906101000a900460ff1681565b60016000808673ffffffffffffffffffffffffffffffffffffffff1673ffffffffffffffffffffffffffffffffffffffff16815260200190815260200160002060006101000a81548160ff02191690831515021790555082600160008673ffffffffffffffffffffffffffffffffffffffff1673ffffffffffffffffffffffffffffffffffffffff168152602001908152602001600020600001908051906020019061020b929190610522565b5081600160008673ffffffffffffffffffffffffffffffffffffffff1673ffffffffffffffffffffffffffffffffffffffff1681526020019081526020016000206001019080519060200190610262929190610522565b5080600160008673ffffffffffffffffffffffffffffffffffffffff1673ffffffffffffffffffffffffffffffffffffffff16815260200190815260200160002060020190805190602001906102b9929190610522565b506002849080600181540180825580915050600190039060005260206000200160009091909190916101000a81548173ffffffffffffffffffffffffffffffffffffffff021916908373ffffffffffffffffffffffffffffffffffffffff1602179055507f2d23dacb9d5a18d171a5b4235e8724cf578b0b3ce497c6f3f04d621f9717f47c848484846040516103529493929190610850565b60405180910390a150505050565b6001602052806000526040600020600091509050806000018054610383906109b9565b80601f01602080910402602001604051908101604052809291908181526020018280546103af906109b9565b80156103fc5780601f106103d1576101008083540402835291602001916103fc565b820191906000526020600020905b8154815290600101906020018083116103df57829003601f168201915b505050505090806001018054610411906109b9565b80601f016020809104026020016040519081016040528092919081815260200182805461043d906109b9565b801561048a5780601f1061045f5761010080835404028352916020019161048a565b820191906000526020600020905b81548152906001019060200180831161046d57829003601f168201915b50505050509080600201805461049f906109b9565b80601f01602080910402602001604051908101604052809291908181526020018280546104cb906109b9565b80156105185780601f106104ed57610100808354040283529160200191610518565b820191906000526020600020905b8154815290600101906020018083116104fb57829003601f168201915b5050505050905083565b82805461052e906109b9565b90600052602060002090601f0160209004810192826105505760008555610597565b82601f1061056957805160ff1916838001178555610597565b82800160010185558215610597579182015b8281111561059657825182559160200191906001019061057b565b5b5090506105a491906105a8565b5090565b5b808211156105c15760008160009055506001016105a9565b5090565b60006105d86105d3846108e2565b6108bd565b9050828152602081018484840111156105f057600080fd5b6105fb848285610977565b509392505050565b60008135905061061281610ab4565b92915050565b600082601f83011261062957600080fd5b81356106398482602086016105c5565b91505092915050565b60008135905061065181610acb565b92915050565b60006020828403121561066957600080fd5b600061067784828501610603565b91505092915050565b6000806000806080858703121561069657600080fd5b60006106a487828801610603565b945050602085013567ffffffffffffffff8111156106c157600080fd5b6106cd87828801610618565b935050604085013567ffffffffffffffff8111156106ea57600080fd5b6106f687828801610618565b925050606085013567ffffffffffffffff81111561071357600080fd5b61071f87828801610618565b91505092959194509250565b60006020828403121561073d57600080fd5b600061074b84828501610642565b91505092915050565b61075d8161092f565b82525050565b61076c81610941565b82525050565b600061077d82610913565b610787818561091e565b9350610797818560208601610986565b6107a081610a7a565b840191505092915050565b60006107b860158361091e565b91506107c382610a8b565b602082019050919050565b60006020820190506107e36000830184610754565b92915050565b60006020820190506107fe6000830184610763565b92915050565b6000606082019050818103600083015261081e8186610772565b905081810360208301526108328185610772565b905081810360408301526108468184610772565b9050949350505050565b600060a0820190508181036000830152610869816107ab565b90506108786020830187610754565b818103604083015261088a8186610772565b9050818103606083015261089e8185610772565b905081810360808301526108b28184610772565b905095945050505050565b60006108c76108d8565b90506108d382826109eb565b919050565b6000604051905090565b600067ffffffffffffffff8211156108fd576108fc610a4b565b5b61090682610a7a565b9050602081019050919050565b600081519050919050565b600082825260208201905092915050565b600061093a8261094d565b9050919050565b60008115159050919050565b600073ffffffffffffffffffffffffffffffffffffffff82169050919050565b6000819050919050565b82818337600083830152505050565b60005b838110156109a4578082015181840152602081019050610989565b838111156109b3576000848401525b50505050565b600060028204905060018216806109d157607f821691505b602082108114156109e5576109e4610a1c565b5b50919050565b6109f482610a7a565b810181811067ffffffffffffffff82111715610a1357610a12610a4b565b5b80604052505050565b7f4e487b7100000000000000000000000000000000000000000000000000000000600052602260045260246000fd5b7f4e487b7100000000000000000000000000000000000000000000000000000000600052604160045260246000fd5b6000601f19601f8301169050919050565b7f5573657220686173206265656e2061646465642e200000000000000000000000600082015250565b610abd8161092f565b8114610ac857600080fd5b50565b610ad48161096d565b8114610adf57600080fd5b5056fea264697066735822122017b9b4035617177e3dcba1f1c8c87f2f8dddaeec193536dab3d273d22f2fc16364736f6c63430008030033",
  "immutableReferences": {},
  "source": "// SPDX-License-Identifier: MIT\r\npragma solidity ^0.8.3;\r\n\r\ncontract User {\r\n\tmapping (address => bool) public isUser;\r\n    event userAdded(string info, address useraddress, string firstname, string lastname, string pesel);\r\n\r\n\tstruct User {\r\n\t    string firstname;\r\n\t    string lastname;\r\n\t    string pesel;\r\n\t}\r\n\t    \r\n\tmapping (address => User) public usersmapping;\r\n\taddress[] public usersAdd;\r\n\r\n\tfunction addUser(address _useraddress, string memory _firstname, string memory _lastname, string memory pesel) public {\r\n\t    isUser[_useraddress] = true;\r\n\t    usersmapping[_useraddress].firstname = _firstname;\r\n\t    usersmapping[_useraddress].lastname = _lastname;\r\n\t    usersmapping[_useraddress].pesel = pesel;\r\n\t    usersAdd.push(_useraddress);\r\n\t            \r\n\t    emit userAdded('User has been added. ', _useraddress, _firstname, _lastname, pesel);\r\n\t}\r\n}",
  "sourcePath": "D:\\PracaInz\\StorageOfMedicalDataWithSupportOfBlockchainTechnology\\contracts\\User.sol",
  "compiler": {
    "name": "solc",
    "version": "0.8.3+commit.8d00100c.Emscripten.clang"
  },
  "schemaVersion": "3.4.4",
  "updatedAt": "2021-12-27T17:22:57.470Z",
  "networkType": "ethereum",
  "devdoc": {
    "kind": "dev",
    "methods": {},
    "version": 1
  },
  "userdoc": {
    "kind": "user",
    "methods": {},
    "version": 1
  }
}