{
  "contractName": "SmartContract",
  "abi": [
    {
      "anonymous": false,
      "inputs": [
        {
          "indexed": false,
          "internalType": "address",
          "name": "patientaddress",
          "type": "address"
        },
        {
          "indexed": false,
          "internalType": "string",
          "name": "firstname",
          "type": "string"
        },
        {
          "indexed": false,
          "internalType": "string",
          "name": "lastname",
          "type": "string"
        },
        {
          "indexed": false,
          "internalType": "string",
          "name": "pubKey",
          "type": "string"
        }
      ],
      "name": "patientAdded",
      "type": "event"
    },
    {
      "anonymous": false,
      "inputs": [
        {
          "indexed": false,
          "internalType": "uint256",
          "name": "fileCounter",
          "type": "uint256"
        },
        {
          "indexed": false,
          "internalType": "string",
          "name": "hash",
          "type": "string"
        },
        {
          "indexed": false,
          "internalType": "string",
          "name": "name",
          "type": "string"
        },
        {
          "indexed": false,
          "internalType": "string",
          "name": "description",
          "type": "string"
        },
        {
          "indexed": false,
          "internalType": "uint256",
          "name": "time",
          "type": "uint256"
        },
        {
          "indexed": false,
          "internalType": "address",
          "name": "owner",
          "type": "address"
        },
        {
          "indexed": false,
          "internalType": "address",
          "name": "uploader",
          "type": "address"
        }
      ],
      "name": "recordAdded",
      "type": "event"
    },
    {
      "inputs": [],
      "name": "fileCounter",
      "outputs": [
        {
          "internalType": "uint256",
          "name": "",
          "type": "uint256"
        }
      ],
      "stateMutability": "view",
      "type": "function",
      "constant": true
    },
    {
      "inputs": [
        {
          "internalType": "uint256",
          "name": "",
          "type": "uint256"
        }
      ],
      "name": "filemapping",
      "outputs": [
        {
          "internalType": "uint256",
          "name": "id",
          "type": "uint256"
        },
        {
          "internalType": "string",
          "name": "hash",
          "type": "string"
        },
        {
          "internalType": "string",
          "name": "name",
          "type": "string"
        },
        {
          "internalType": "string",
          "name": "description",
          "type": "string"
        },
        {
          "internalType": "uint256",
          "name": "date",
          "type": "uint256"
        },
        {
          "internalType": "address",
          "name": "owner",
          "type": "address"
        },
        {
          "internalType": "address",
          "name": "uploader",
          "type": "address"
        }
      ],
      "stateMutability": "view",
      "type": "function",
      "constant": true
    },
    {
      "inputs": [
        {
          "internalType": "address",
          "name": "",
          "type": "address"
        }
      ],
      "name": "isPatient",
      "outputs": [
        {
          "internalType": "bool",
          "name": "",
          "type": "bool"
        }
      ],
      "stateMutability": "view",
      "type": "function",
      "constant": true
    },
    {
      "inputs": [
        {
          "internalType": "uint256",
          "name": "",
          "type": "uint256"
        }
      ],
      "name": "patientAdd",
      "outputs": [
        {
          "internalType": "address",
          "name": "",
          "type": "address"
        }
      ],
      "stateMutability": "view",
      "type": "function",
      "constant": true
    },
    {
      "inputs": [
        {
          "internalType": "address",
          "name": "",
          "type": "address"
        }
      ],
      "name": "patientmapping",
      "outputs": [
        {
          "internalType": "string",
          "name": "firstname",
          "type": "string"
        },
        {
          "internalType": "string",
          "name": "lastname",
          "type": "string"
        },
        {
          "internalType": "string",
          "name": "pubKey",
          "type": "string"
        }
      ],
      "stateMutability": "view",
      "type": "function",
      "constant": true
    },
    {
      "inputs": [
        {
          "internalType": "address",
          "name": "_patientaddress",
          "type": "address"
        },
        {
          "internalType": "string",
          "name": "_firstname",
          "type": "string"
        },
        {
          "internalType": "string",
          "name": "_lastname",
          "type": "string"
        },
        {
          "internalType": "string",
          "name": "_pubKey",
          "type": "string"
        }
      ],
      "name": "addPatient",
      "outputs": [],
      "stateMutability": "nonpayable",
      "type": "function"
    },
    {
      "inputs": [
        {
          "internalType": "string",
          "name": "_hash",
          "type": "string"
        },
        {
          "internalType": "string",
          "name": "_name",
          "type": "string"
        },
        {
          "internalType": "string",
          "name": "_description",
          "type": "string"
        },
        {
          "internalType": "address",
          "name": "_owner",
          "type": "address"
        }
      ],
      "name": "addRecord",
      "outputs": [],
      "stateMutability": "nonpayable",
      "type": "function"
    }
  ],
  "bytecode": "0x6080604052600060035534801561001557600080fd5b506111c8806100256000396000f3fe608060405234801561001057600080fd5b506004361061007d5760003560e01c8063817959f71161005b578063817959f7146101005780638f9c79ed1461011e578063bb9c3c351461014e578063c5df63541461016a5761007d565b80632c76361f146100825780633731b3311461009e5780633da8533e146100ce575b600080fd5b61009c60048036038101906100979190610bb1565b6101a0565b005b6100b860048036038101906100b39190610d07565b6103a2565b6040516100c59190610d96565b60405180910390f35b6100e860048036038101906100e39190610b88565b6103e1565b6040516100f793929190610e26565b60405180910390f35b6101086105a3565b6040516101159190610e72565b60405180910390f35b61013860048036038101906101339190610b88565b6105a9565b6040516101459190610e0b565b60405180910390f35b61016860048036038101906101639190610c5c565b6105c9565b005b610184600480360381019061017f9190610d07565b610839565b6040516101979796959493929190610e8d565b60405180910390f35b60016000808673ffffffffffffffffffffffffffffffffffffffff1673ffffffffffffffffffffffffffffffffffffffff16815260200190815260200160002060006101000a81548160ff02191690831515021790555082600160008673ffffffffffffffffffffffffffffffffffffffff1673ffffffffffffffffffffffffffffffffffffffff168152602001908152602001600020600001908051906020019061024d929190610a53565b5081600160008673ffffffffffffffffffffffffffffffffffffffff1673ffffffffffffffffffffffffffffffffffffffff16815260200190815260200160002060010190805190602001906102a4929190610a53565b5080600160008673ffffffffffffffffffffffffffffffffffffffff1673ffffffffffffffffffffffffffffffffffffffff16815260200190815260200160002060020190805190602001906102fb929190610a53565b506002849080600181540180825580915050600190039060005260206000200160009091909190916101000a81548173ffffffffffffffffffffffffffffffffffffffff021916908373ffffffffffffffffffffffffffffffffffffffff1602179055507f9090b1afe6a1ac47175007fa1e1df478243b433f6944c4f118955af6ef2b4372848484846040516103949493929190610db1565b60405180910390a150505050565b600281815481106103b257600080fd5b906000526020600020016000915054906101000a900473ffffffffffffffffffffffffffffffffffffffff1681565b600160205280600052604060002060009150905080600001805461040490611063565b80601f016020809104026020016040519081016040528092919081815260200182805461043090611063565b801561047d5780601f106104525761010080835404028352916020019161047d565b820191906000526020600020905b81548152906001019060200180831161046057829003601f168201915b50505050509080600101805461049290611063565b80601f01602080910402602001604051908101604052809291908181526020018280546104be90611063565b801561050b5780601f106104e05761010080835404028352916020019161050b565b820191906000526020600020905b8154815290600101906020018083116104ee57829003601f168201915b50505050509080600201805461052090611063565b80601f016020809104026020016040519081016040528092919081815260200182805461054c90611063565b80156105995780601f1061056e57610100808354040283529160200191610599565b820191906000526020600020905b81548152906001019060200180831161057c57829003601f168201915b5050505050905083565b60035481565b60006020528060005260406000206000915054906101000a900460ff1681565b60008451116105d757600080fd5b60008351116105e557600080fd5b60008251116105f357600080fd5b600073ffffffffffffffffffffffffffffffffffffffff163373ffffffffffffffffffffffffffffffffffffffff16141561062d57600080fd5b600073ffffffffffffffffffffffffffffffffffffffff168173ffffffffffffffffffffffffffffffffffffffff16141561066757600080fd5b60016003546106769190610f83565b6003819055506040518060e0016040528060035481526020018581526020018481526020018381526020014281526020018273ffffffffffffffffffffffffffffffffffffffff1681526020013373ffffffffffffffffffffffffffffffffffffffff16815250600460006003548152602001908152602001600020600082015181600001556020820151816001019080519060200190610718929190610a53565b506040820151816002019080519060200190610735929190610a53565b506060820151816003019080519060200190610752929190610a53565b506080820151816004015560a08201518160050160006101000a81548173ffffffffffffffffffffffffffffffffffffffff021916908373ffffffffffffffffffffffffffffffffffffffff16021790555060c08201518160060160006101000a81548173ffffffffffffffffffffffffffffffffffffffff021916908373ffffffffffffffffffffffffffffffffffffffff1602179055509050507f864e41934e4850772a59542922a5dcfc7d079a6f65ba2b723334e9359e22d65960035485858542863360405161082b9796959493929190610e8d565b60405180910390a150505050565b600460205280600052604060002060009150905080600001549080600101805461086290611063565b80601f016020809104026020016040519081016040528092919081815260200182805461088e90611063565b80156108db5780601f106108b0576101008083540402835291602001916108db565b820191906000526020600020905b8154815290600101906020018083116108be57829003601f168201915b5050505050908060020180546108f090611063565b80601f016020809104026020016040519081016040528092919081815260200182805461091c90611063565b80156109695780601f1061093e57610100808354040283529160200191610969565b820191906000526020600020905b81548152906001019060200180831161094c57829003601f168201915b50505050509080600301805461097e90611063565b80601f01602080910402602001604051908101604052809291908181526020018280546109aa90611063565b80156109f75780601f106109cc576101008083540402835291602001916109f7565b820191906000526020600020905b8154815290600101906020018083116109da57829003601f168201915b5050505050908060040154908060050160009054906101000a900473ffffffffffffffffffffffffffffffffffffffff16908060060160009054906101000a900473ffffffffffffffffffffffffffffffffffffffff16905087565b828054610a5f90611063565b90600052602060002090601f016020900481019282610a815760008555610ac8565b82601f10610a9a57805160ff1916838001178555610ac8565b82800160010185558215610ac8579182015b82811115610ac7578251825591602001919060010190610aac565b5b509050610ad59190610ad9565b5090565b5b80821115610af2576000816000905550600101610ada565b5090565b6000610b09610b0484610f36565b610f11565b905082815260208101848484011115610b2157600080fd5b610b2c848285611021565b509392505050565b600081359050610b4381611164565b92915050565b600082601f830112610b5a57600080fd5b8135610b6a848260208601610af6565b91505092915050565b600081359050610b828161117b565b92915050565b600060208284031215610b9a57600080fd5b6000610ba884828501610b34565b91505092915050565b60008060008060808587031215610bc757600080fd5b6000610bd587828801610b34565b945050602085013567ffffffffffffffff811115610bf257600080fd5b610bfe87828801610b49565b935050604085013567ffffffffffffffff811115610c1b57600080fd5b610c2787828801610b49565b925050606085013567ffffffffffffffff811115610c4457600080fd5b610c5087828801610b49565b91505092959194509250565b60008060008060808587031215610c7257600080fd5b600085013567ffffffffffffffff811115610c8c57600080fd5b610c9887828801610b49565b945050602085013567ffffffffffffffff811115610cb557600080fd5b610cc187828801610b49565b935050604085013567ffffffffffffffff811115610cde57600080fd5b610cea87828801610b49565b9250506060610cfb87828801610b34565b91505092959194509250565b600060208284031215610d1957600080fd5b6000610d2784828501610b73565b91505092915050565b610d3981610fd9565b82525050565b610d4881610feb565b82525050565b6000610d5982610f67565b610d638185610f72565b9350610d73818560208601611030565b610d7c81611153565b840191505092915050565b610d9081611017565b82525050565b6000602082019050610dab6000830184610d30565b92915050565b6000608082019050610dc66000830187610d30565b8181036020830152610dd88186610d4e565b90508181036040830152610dec8185610d4e565b90508181036060830152610e008184610d4e565b905095945050505050565b6000602082019050610e206000830184610d3f565b92915050565b60006060820190508181036000830152610e408186610d4e565b90508181036020830152610e548185610d4e565b90508181036040830152610e688184610d4e565b9050949350505050565b6000602082019050610e876000830184610d87565b92915050565b600060e082019050610ea2600083018a610d87565b8181036020830152610eb48189610d4e565b90508181036040830152610ec88188610d4e565b90508181036060830152610edc8187610d4e565b9050610eeb6080830186610d87565b610ef860a0830185610d30565b610f0560c0830184610d30565b98975050505050505050565b6000610f1b610f2c565b9050610f278282611095565b919050565b6000604051905090565b600067ffffffffffffffff821115610f5157610f50611124565b5b610f5a82611153565b9050602081019050919050565b600081519050919050565b600082825260208201905092915050565b6000610f8e82611017565b9150610f9983611017565b9250827fffffffffffffffffffffffffffffffffffffffffffffffffffffffffffffffff03821115610fce57610fcd6110c6565b5b828201905092915050565b6000610fe482610ff7565b9050919050565b60008115159050919050565b600073ffffffffffffffffffffffffffffffffffffffff82169050919050565b6000819050919050565b82818337600083830152505050565b60005b8381101561104e578082015181840152602081019050611033565b8381111561105d576000848401525b50505050565b6000600282049050600182168061107b57607f821691505b6020821081141561108f5761108e6110f5565b5b50919050565b61109e82611153565b810181811067ffffffffffffffff821117156110bd576110bc611124565b5b80604052505050565b7f4e487b7100000000000000000000000000000000000000000000000000000000600052601160045260246000fd5b7f4e487b7100000000000000000000000000000000000000000000000000000000600052602260045260246000fd5b7f4e487b7100000000000000000000000000000000000000000000000000000000600052604160045260246000fd5b6000601f19601f8301169050919050565b61116d81610fd9565b811461117857600080fd5b50565b61118481611017565b811461118f57600080fd5b5056fea2646970667358221220333f4874631cebe10da9f7bd9f23bcc551bea735157694ac983e2a2bad6d8c6f64736f6c63430008030033",
  "immutableReferences": {},
  "source": "// SPDX-License-Identifier: MIT\r\npragma solidity ^0.8.3;\r\n\r\ncontract SmartContract {\r\n\tmapping (address => bool) public isPatient;\r\n\r\n    event patientAdded(\r\n    \taddress patientaddress,\r\n    \tstring firstname,\r\n    \tstring lastname,\r\n    \tstring pubKey\r\n    );\r\n    event recordAdded(\r\n    \tuint fileCounter, \r\n    \tstring hash, \r\n    \tstring name,\r\n    \tstring description,\r\n    \tuint time,\r\n    \taddress owner,\r\n    \taddress uploader\r\n    );\r\n\r\n\tstruct Patient {\r\n\t    string firstname;\r\n\t    string lastname;\r\n\t    string pubKey;\r\n\t}\r\n\t    \r\n\tmapping (address => Patient) public patientmapping;\r\n\taddress[] public patientAdd;\r\n\r\n\tfunction addPatient(address _patientaddress, string memory _firstname, string memory _lastname, string memory _pubKey) public {\r\n\t    isPatient[_patientaddress] = true;\r\n\t    patientmapping[_patientaddress].firstname = _firstname;\r\n\t    patientmapping[_patientaddress].lastname = _lastname;\r\n\t    patientmapping[_patientaddress].pubKey = _pubKey;\r\n\t    patientAdd.push(_patientaddress);\r\n\t            \r\n\t    emit patientAdded(_patientaddress, _firstname, _lastname, _pubKey);\r\n\t}\r\n\r\n\tstruct File {\r\n\t    uint id;\r\n\t    string hash;\r\n\t    string name;\r\n\t    string description;\r\n\t    uint date;\r\n\t    address owner;\r\n\t    address uploader;\r\n\t}\r\n\t\r\n\tuint public fileCounter = 0;    \r\n\tmapping (uint => File) public filemapping;\r\n\t\r\n\r\n\tfunction addRecord(string memory _hash, string memory _name, string memory _description, address _owner) public {\r\n\t\trequire (bytes(_hash).length > 0);\r\n\t\trequire (bytes(_name).length > 0);\r\n\t\trequire (bytes(_description).length > 0);\r\n\t\trequire (msg.sender!=address(0));\r\n\t\trequire (_owner!=address(0));\r\n\t\tfileCounter = fileCounter + 1;\r\n\t\tfilemapping[fileCounter] = File(fileCounter, _hash, _name, _description, block.timestamp, _owner, msg.sender);\r\n\t\temit recordAdded(fileCounter, _hash, _name, _description, block.timestamp, _owner, msg.sender);\r\n\t\t\r\n\t}\r\n}",
  "sourcePath": "D:\\PracaInz\\StorageOfMedicalDataWithSupportOfBlockchainTechnology\\contracts\\SmartContract.sol",
  "compiler": {
    "name": "solc",
    "version": "0.8.3+commit.8d00100c.Emscripten.clang"
  },
  "schemaVersion": "3.4.4",
  "updatedAt": "2022-01-06T21:23:03.247Z",
  "networkType": "ethereum",
  "devdoc": {
    "kind": "dev",
    "methods": {},
    "version": 1
  },
  "userdoc": {
    "kind": "user",
    "methods": {},
    "version": 1
  }
}