{
  "contractName": "SmartContract",
  "abi": [
    {
      "inputs": [],
      "stateMutability": "nonpayable",
      "type": "constructor"
    },
    {
      "anonymous": false,
      "inputs": [
        {
          "indexed": false,
          "internalType": "address",
          "name": "patientaddress",
          "type": "address"
        },
        {
          "indexed": false,
          "internalType": "string",
          "name": "firstname",
          "type": "string"
        },
        {
          "indexed": false,
          "internalType": "string",
          "name": "lastname",
          "type": "string"
        },
        {
          "indexed": false,
          "internalType": "string",
          "name": "pubKey",
          "type": "string"
        }
      ],
      "name": "patientAdded",
      "type": "event"
    },
    {
      "anonymous": false,
      "inputs": [
        {
          "indexed": false,
          "internalType": "uint256",
          "name": "fileCounter",
          "type": "uint256"
        },
        {
          "indexed": false,
          "internalType": "string",
          "name": "hash",
          "type": "string"
        },
        {
          "indexed": false,
          "internalType": "string",
          "name": "name",
          "type": "string"
        },
        {
          "indexed": false,
          "internalType": "string",
          "name": "description",
          "type": "string"
        },
        {
          "indexed": false,
          "internalType": "uint256",
          "name": "time",
          "type": "uint256"
        },
        {
          "indexed": false,
          "internalType": "address",
          "name": "owner",
          "type": "address"
        },
        {
          "indexed": false,
          "internalType": "address",
          "name": "uploader",
          "type": "address"
        }
      ],
      "name": "recordAdded",
      "type": "event"
    },
    {
      "inputs": [
        {
          "internalType": "uint256",
          "name": "",
          "type": "uint256"
        }
      ],
      "name": "doctorAdd",
      "outputs": [
        {
          "internalType": "address",
          "name": "",
          "type": "address"
        }
      ],
      "stateMutability": "view",
      "type": "function",
      "constant": true
    },
    {
      "inputs": [
        {
          "internalType": "address",
          "name": "",
          "type": "address"
        }
      ],
      "name": "doctormapping",
      "outputs": [
        {
          "internalType": "string",
          "name": "firstname",
          "type": "string"
        },
        {
          "internalType": "string",
          "name": "lastname",
          "type": "string"
        },
        {
          "internalType": "string",
          "name": "pubKey",
          "type": "string"
        },
        {
          "internalType": "string",
          "name": "specialization",
          "type": "string"
        }
      ],
      "stateMutability": "view",
      "type": "function",
      "constant": true
    },
    {
      "inputs": [
        {
          "internalType": "uint256",
          "name": "",
          "type": "uint256"
        }
      ],
      "name": "filemapping",
      "outputs": [
        {
          "internalType": "uint256",
          "name": "id",
          "type": "uint256"
        },
        {
          "internalType": "string",
          "name": "hash",
          "type": "string"
        },
        {
          "internalType": "string",
          "name": "name",
          "type": "string"
        },
        {
          "internalType": "string",
          "name": "description",
          "type": "string"
        },
        {
          "internalType": "uint256",
          "name": "date",
          "type": "uint256"
        },
        {
          "internalType": "address",
          "name": "owner",
          "type": "address"
        },
        {
          "internalType": "address",
          "name": "uploader",
          "type": "address"
        }
      ],
      "stateMutability": "view",
      "type": "function",
      "constant": true
    },
    {
      "inputs": [],
      "name": "id",
      "outputs": [
        {
          "internalType": "uint256",
          "name": "",
          "type": "uint256"
        }
      ],
      "stateMutability": "view",
      "type": "function",
      "constant": true
    },
    {
      "inputs": [
        {
          "internalType": "address",
          "name": "",
          "type": "address"
        }
      ],
      "name": "isDoctor",
      "outputs": [
        {
          "internalType": "bool",
          "name": "",
          "type": "bool"
        }
      ],
      "stateMutability": "view",
      "type": "function",
      "constant": true
    },
    {
      "inputs": [
        {
          "internalType": "address",
          "name": "",
          "type": "address"
        }
      ],
      "name": "isPatient",
      "outputs": [
        {
          "internalType": "bool",
          "name": "",
          "type": "bool"
        }
      ],
      "stateMutability": "view",
      "type": "function",
      "constant": true
    },
    {
      "inputs": [
        {
          "internalType": "uint256",
          "name": "",
          "type": "uint256"
        }
      ],
      "name": "patientAdd",
      "outputs": [
        {
          "internalType": "address",
          "name": "",
          "type": "address"
        }
      ],
      "stateMutability": "view",
      "type": "function",
      "constant": true
    },
    {
      "inputs": [
        {
          "internalType": "address",
          "name": "",
          "type": "address"
        }
      ],
      "name": "patientmapping",
      "outputs": [
        {
          "internalType": "string",
          "name": "firstname",
          "type": "string"
        },
        {
          "internalType": "string",
          "name": "lastname",
          "type": "string"
        },
        {
          "internalType": "string",
          "name": "pubKey",
          "type": "string"
        },
        {
          "internalType": "uint256",
          "name": "fileCounter",
          "type": "uint256"
        }
      ],
      "stateMutability": "view",
      "type": "function",
      "constant": true
    },
    {
      "inputs": [
        {
          "internalType": "address",
          "name": "_patientaddress",
          "type": "address"
        },
        {
          "internalType": "string",
          "name": "_firstname",
          "type": "string"
        },
        {
          "internalType": "string",
          "name": "_lastname",
          "type": "string"
        },
        {
          "internalType": "string",
          "name": "_pubKey",
          "type": "string"
        }
      ],
      "name": "addPatient",
      "outputs": [],
      "stateMutability": "nonpayable",
      "type": "function"
    },
    {
      "inputs": [
        {
          "internalType": "string",
          "name": "_hash",
          "type": "string"
        },
        {
          "internalType": "string",
          "name": "_name",
          "type": "string"
        },
        {
          "internalType": "string",
          "name": "_description",
          "type": "string"
        },
        {
          "internalType": "address",
          "name": "_owner",
          "type": "address"
        }
      ],
      "name": "addRecord",
      "outputs": [],
      "stateMutability": "nonpayable",
      "type": "function"
    },
    {
      "inputs": [
        {
          "internalType": "address",
          "name": "patientAddress",
          "type": "address"
        },
        {
          "internalType": "uint256",
          "name": "index",
          "type": "uint256"
        }
      ],
      "name": "getPatientFiles",
      "outputs": [
        {
          "components": [
            {
              "internalType": "uint256",
              "name": "id",
              "type": "uint256"
            },
            {
              "internalType": "string",
              "name": "hash",
              "type": "string"
            },
            {
              "internalType": "string",
              "name": "name",
              "type": "string"
            },
            {
              "internalType": "string",
              "name": "description",
              "type": "string"
            },
            {
              "internalType": "uint256",
              "name": "date",
              "type": "uint256"
            },
            {
              "internalType": "address",
              "name": "owner",
              "type": "address"
            },
            {
              "internalType": "address",
              "name": "uploader",
              "type": "address"
            }
          ],
          "internalType": "struct SmartContract.File",
          "name": "",
          "type": "tuple"
        }
      ],
      "stateMutability": "view",
      "type": "function",
      "constant": true
    }
  ],
  "bytecode": "0x608060405260006006553480156200001657600080fd5b5060016000807339f573c0f078847939aaeeedca6bee1cfe77208673ffffffffffffffffffffffffffffffffffffffff1673ffffffffffffffffffffffffffffffffffffffff16815260200190815260200160002060006101000a81548160ff0219169083151502179055506040518060400160405280600281526020017f4472000000000000000000000000000000000000000000000000000000000000815250600160007339f573c0f078847939aaeeedca6bee1cfe77208673ffffffffffffffffffffffffffffffffffffffff1673ffffffffffffffffffffffffffffffffffffffff16815260200190815260200160002060000190805190602001906200012392919062000a08565b506040518060400160405280600381526020017f4472650000000000000000000000000000000000000000000000000000000000815250600160007339f573c0f078847939aaeeedca6bee1cfe77208673ffffffffffffffffffffffffffffffffffffffff1673ffffffffffffffffffffffffffffffffffffffff1681526020019081526020016000206001019080519060200190620001c592919062000a08565b5060405180610100016040528060d88152602001620028dc60d89139600160007339f573c0f078847939aaeeedca6bee1cfe77208673ffffffffffffffffffffffffffffffffffffffff1673ffffffffffffffffffffffffffffffffffffffff16815260200190815260200160002060020190805190602001906200024c92919062000a08565b506040518060400160405280600c81526020017f43617264696f6c6f676973740000000000000000000000000000000000000000815250600160007339f573c0f078847939aaeeedca6bee1cfe77208673ffffffffffffffffffffffffffffffffffffffff1673ffffffffffffffffffffffffffffffffffffffff1681526020019081526020016000206003019080519060200190620002ee92919062000a08565b5060027339f573c0f078847939aaeeedca6bee1cfe7720869080600181540180825580915050600190039060005260206000200160009091909190916101000a81548173ffffffffffffffffffffffffffffffffffffffff021916908373ffffffffffffffffffffffffffffffffffffffff16021790555060016000807369fd5f300faac374a89a4c785d6941c33e97d2e673ffffffffffffffffffffffffffffffffffffffff1673ffffffffffffffffffffffffffffffffffffffff16815260200190815260200160002060006101000a81548160ff0219169083151502179055506040518060400160405280600281526020017f4472000000000000000000000000000000000000000000000000000000000000815250600160007369fd5f300faac374a89a4c785d6941c33e97d2e673ffffffffffffffffffffffffffffffffffffffff1673ffffffffffffffffffffffffffffffffffffffff16815260200190815260200160002060000190805190602001906200047292919062000a08565b506040518060400160405280600681526020017f4f65746b65720000000000000000000000000000000000000000000000000000815250600160007369fd5f300faac374a89a4c785d6941c33e97d2e673ffffffffffffffffffffffffffffffffffffffff1673ffffffffffffffffffffffffffffffffffffffff16815260200190815260200160002060010190805190602001906200051492919062000a08565b506040518060a0016040528060808152602001620029b460809139600160007369fd5f300faac374a89a4c785d6941c33e97d2e673ffffffffffffffffffffffffffffffffffffffff1673ffffffffffffffffffffffffffffffffffffffff16815260200190815260200160002060020190805190602001906200059a92919062000a08565b506040518060400160405280600c81526020017f50656469617472696369616e0000000000000000000000000000000000000000815250600160007369fd5f300faac374a89a4c785d6941c33e97d2e673ffffffffffffffffffffffffffffffffffffffff1673ffffffffffffffffffffffffffffffffffffffff16815260200190815260200160002060030190805190602001906200063c92919062000a08565b5060027369fd5f300faac374a89a4c785d6941c33e97d2e69080600181540180825580915050600190039060005260206000200160009091909190916101000a81548173ffffffffffffffffffffffffffffffffffffffff021916908373ffffffffffffffffffffffffffffffffffffffff160217905550600160008073affa5deb9b4aa5f1d3d722b82d64079ffa0e8bc273ffffffffffffffffffffffffffffffffffffffff1673ffffffffffffffffffffffffffffffffffffffff16815260200190815260200160002060006101000a81548160ff0219169083151502179055506040518060400160405280600281526020017f44720000000000000000000000000000000000000000000000000000000000008152506001600073affa5deb9b4aa5f1d3d722b82d64079ffa0e8bc273ffffffffffffffffffffffffffffffffffffffff1673ffffffffffffffffffffffffffffffffffffffff1681526020019081526020016000206000019080519060200190620007c092919062000a08565b506040518060400160405280600681526020017f47657261726400000000000000000000000000000000000000000000000000008152506001600073affa5deb9b4aa5f1d3d722b82d64079ffa0e8bc273ffffffffffffffffffffffffffffffffffffffff1673ffffffffffffffffffffffffffffffffffffffff16815260200190815260200160002060010190805190602001906200086292919062000a08565b506040518060a00160405280607c815260200162002860607c91396001600073affa5deb9b4aa5f1d3d722b82d64079ffa0e8bc273ffffffffffffffffffffffffffffffffffffffff1673ffffffffffffffffffffffffffffffffffffffff1681526020019081526020016000206002019080519060200190620008e892919062000a08565b506040518060400160405280600c81526020017f496d6d756e6f6c6f6769737400000000000000000000000000000000000000008152506001600073affa5deb9b4aa5f1d3d722b82d64079ffa0e8bc273ffffffffffffffffffffffffffffffffffffffff1673ffffffffffffffffffffffffffffffffffffffff16815260200190815260200160002060030190805190602001906200098a92919062000a08565b50600273affa5deb9b4aa5f1d3d722b82d64079ffa0e8bc29080600181540180825580915050600190039060005260206000200160009091909190916101000a81548173ffffffffffffffffffffffffffffffffffffffff021916908373ffffffffffffffffffffffffffffffffffffffff16021790555062000b1d565b82805462000a169062000ab8565b90600052602060002090601f01602090048101928262000a3a576000855562000a86565b82601f1062000a5557805160ff191683800117855562000a86565b8280016001018555821562000a86579182015b8281111562000a8557825182559160200191906001019062000a68565b5b50905062000a95919062000a99565b5090565b5b8082111562000ab457600081600090555060010162000a9a565b5090565b6000600282049050600182168062000ad157607f821691505b6020821081141562000ae85762000ae762000aee565b5b50919050565b7f4e487b7100000000000000000000000000000000000000000000000000000000600052602260045260246000fd5b611d338062000b2d6000396000f3fe608060405234801561001057600080fd5b50600436106100a95760003560e01c8063731c0cad11610071578063731c0cad1461018d5780638f9c79ed146101c0578063996440c6146101f0578063af640d0f14610220578063bb9c3c351461023e578063c5df63541461025a576100a9565b80632c76361f146100ae5780633731b331146100ca5780633da8533e146100fa57806349c4bdb21461012d57806364f479fb1461015d575b600080fd5b6100c860048036038101906100c3919061153d565b610290565b005b6100e460048036038101906100df91906116cf565b6104db565b6040516100f1919061185f565b60405180910390f35b610114600480360381019061010f9190611514565b61051a565b6040516101249493929190611950565b60405180910390f35b610147600480360381019061014291906116cf565b6106e2565b604051610154919061185f565b60405180910390f35b610177600480360381019061017291906115e8565b610721565b60405161018491906119aa565b60405180910390f35b6101a760048036038101906101a29190611514565b610a0b565b6040516101b794939291906118ef565b60405180910390f35b6101da60048036038101906101d59190611514565b610c5b565b6040516101e791906118d4565b60405180910390f35b61020a60048036038101906102059190611514565b610c7b565b60405161021791906118d4565b60405180910390f35b610228610c9b565b60405161023591906119cc565b60405180910390f35b61025860048036038101906102539190611624565b610ca1565b005b610274600480360381019061026f91906116cf565b61115c565b60405161028797969594939291906119e7565b60405180910390f35b6001600360008673ffffffffffffffffffffffffffffffffffffffff1673ffffffffffffffffffffffffffffffffffffffff16815260200190815260200160002060006101000a81548160ff02191690831515021790555082600460008673ffffffffffffffffffffffffffffffffffffffff1673ffffffffffffffffffffffffffffffffffffffff168152602001908152602001600020600001908051906020019061033e929190611376565b5081600460008673ffffffffffffffffffffffffffffffffffffffff1673ffffffffffffffffffffffffffffffffffffffff1681526020019081526020016000206001019080519060200190610395929190611376565b5080600460008673ffffffffffffffffffffffffffffffffffffffff1673ffffffffffffffffffffffffffffffffffffffff16815260200190815260200160002060020190805190602001906103ec929190611376565b506000600460008673ffffffffffffffffffffffffffffffffffffffff1673ffffffffffffffffffffffffffffffffffffffff168152602001908152602001600020600401819055506005849080600181540180825580915050600190039060005260206000200160009091909190916101000a81548173ffffffffffffffffffffffffffffffffffffffff021916908373ffffffffffffffffffffffffffffffffffffffff1602179055507f9090b1afe6a1ac47175007fa1e1df478243b433f6944c4f118955af6ef2b4372848484846040516104cd949392919061187a565b60405180910390a150505050565b600581815481106104eb57600080fd5b906000526020600020016000915054906101000a900473ffffffffffffffffffffffffffffffffffffffff1681565b600460205280600052604060002060009150905080600001805461053d90611bce565b80601f016020809104026020016040519081016040528092919081815260200182805461056990611bce565b80156105b65780601f1061058b576101008083540402835291602001916105b6565b820191906000526020600020905b81548152906001019060200180831161059957829003601f168201915b5050505050908060010180546105cb90611bce565b80601f01602080910402602001604051908101604052809291908181526020018280546105f790611bce565b80156106445780601f1061061957610100808354040283529160200191610644565b820191906000526020600020905b81548152906001019060200180831161062757829003601f168201915b50505050509080600201805461065990611bce565b80601f016020809104026020016040519081016040528092919081815260200182805461068590611bce565b80156106d25780601f106106a7576101008083540402835291602001916106d2565b820191906000526020600020905b8154815290600101906020018083116106b557829003601f168201915b5050505050908060040154905084565b600281815481106106f257600080fd5b906000526020600020016000915054906101000a900473ffffffffffffffffffffffffffffffffffffffff1681565b6107296113fc565b6000600460008573ffffffffffffffffffffffffffffffffffffffff1673ffffffffffffffffffffffffffffffffffffffff16815260200190815260200160002060030160008481526020019081526020016000206040518060e0016040529081600082015481526020016001820180546107a390611bce565b80601f01602080910402602001604051908101604052809291908181526020018280546107cf90611bce565b801561081c5780601f106107f15761010080835404028352916020019161081c565b820191906000526020600020905b8154815290600101906020018083116107ff57829003601f168201915b5050505050815260200160028201805461083590611bce565b80601f016020809104026020016040519081016040528092919081815260200182805461086190611bce565b80156108ae5780601f10610883576101008083540402835291602001916108ae565b820191906000526020600020905b81548152906001019060200180831161089157829003601f168201915b505050505081526020016003820180546108c790611bce565b80601f01602080910402602001604051908101604052809291908181526020018280546108f390611bce565b80156109405780601f1061091557610100808354040283529160200191610940565b820191906000526020600020905b81548152906001019060200180831161092357829003601f168201915b50505050508152602001600482015481526020016005820160009054906101000a900473ffffffffffffffffffffffffffffffffffffffff1673ffffffffffffffffffffffffffffffffffffffff1673ffffffffffffffffffffffffffffffffffffffff1681526020016006820160009054906101000a900473ffffffffffffffffffffffffffffffffffffffff1673ffffffffffffffffffffffffffffffffffffffff1673ffffffffffffffffffffffffffffffffffffffff168152505090508091505092915050565b6001602052806000526040600020600091509050806000018054610a2e90611bce565b80601f0160208091040260200160405190810160405280929190818152602001828054610a5a90611bce565b8015610aa75780601f10610a7c57610100808354040283529160200191610aa7565b820191906000526020600020905b815481529060010190602001808311610a8a57829003601f168201915b505050505090806001018054610abc90611bce565b80601f0160208091040260200160405190810160405280929190818152602001828054610ae890611bce565b8015610b355780601f10610b0a57610100808354040283529160200191610b35565b820191906000526020600020905b815481529060010190602001808311610b1857829003601f168201915b505050505090806002018054610b4a90611bce565b80601f0160208091040260200160405190810160405280929190818152602001828054610b7690611bce565b8015610bc35780601f10610b9857610100808354040283529160200191610bc3565b820191906000526020600020905b815481529060010190602001808311610ba657829003601f168201915b505050505090806003018054610bd890611bce565b80601f0160208091040260200160405190810160405280929190818152602001828054610c0490611bce565b8015610c515780601f10610c2657610100808354040283529160200191610c51565b820191906000526020600020905b815481529060010190602001808311610c3457829003601f168201915b5050505050905084565b60036020528060005260406000206000915054906101000a900460ff1681565b60006020528060005260406000206000915054906101000a900460ff1681565b60065481565b6000845111610caf57600080fd5b6000835111610cbd57600080fd5b6000825111610ccb57600080fd5b600073ffffffffffffffffffffffffffffffffffffffff163373ffffffffffffffffffffffffffffffffffffffff161415610d0557600080fd5b600073ffffffffffffffffffffffffffffffffffffffff168173ffffffffffffffffffffffffffffffffffffffff161415610d3f57600080fd5b6000600460008373ffffffffffffffffffffffffffffffffffffffff1673ffffffffffffffffffffffffffffffffffffffff168152602001908152602001600020600401549050600181610d939190611aee565b600460008473ffffffffffffffffffffffffffffffffffffffff1673ffffffffffffffffffffffffffffffffffffffff168152602001908152602001600020600401819055506040518060e0016040528060065481526020018681526020018581526020018481526020014281526020018373ffffffffffffffffffffffffffffffffffffffff1681526020013373ffffffffffffffffffffffffffffffffffffffff16815250600460008473ffffffffffffffffffffffffffffffffffffffff1673ffffffffffffffffffffffffffffffffffffffff1681526020019081526020016000206003016000838152602001908152602001600020600082015181600001556020820151816001019080519060200190610eb3929190611376565b506040820151816002019080519060200190610ed0929190611376565b506060820151816003019080519060200190610eed929190611376565b506080820151816004015560a08201518160050160006101000a81548173ffffffffffffffffffffffffffffffffffffffff021916908373ffffffffffffffffffffffffffffffffffffffff16021790555060c08201518160060160006101000a81548173ffffffffffffffffffffffffffffffffffffffff021916908373ffffffffffffffffffffffffffffffffffffffff1602179055509050506001600654610f989190611aee565b6006819055506040518060e0016040528060065481526020018681526020018581526020018481526020014281526020018373ffffffffffffffffffffffffffffffffffffffff1681526020013373ffffffffffffffffffffffffffffffffffffffff1681525060076000600654815260200190815260200160002060008201518160000155602082015181600101908051906020019061103a929190611376565b506040820151816002019080519060200190611057929190611376565b506060820151816003019080519060200190611074929190611376565b506080820151816004015560a08201518160050160006101000a81548173ffffffffffffffffffffffffffffffffffffffff021916908373ffffffffffffffffffffffffffffffffffffffff16021790555060c08201518160060160006101000a81548173ffffffffffffffffffffffffffffffffffffffff021916908373ffffffffffffffffffffffffffffffffffffffff1602179055509050507f864e41934e4850772a59542922a5dcfc7d079a6f65ba2b723334e9359e22d65960065486868642873360405161114d97969594939291906119e7565b60405180910390a15050505050565b600760205280600052604060002060009150905080600001549080600101805461118590611bce565b80601f01602080910402602001604051908101604052809291908181526020018280546111b190611bce565b80156111fe5780601f106111d3576101008083540402835291602001916111fe565b820191906000526020600020905b8154815290600101906020018083116111e157829003601f168201915b50505050509080600201805461121390611bce565b80601f016020809104026020016040519081016040528092919081815260200182805461123f90611bce565b801561128c5780601f106112615761010080835404028352916020019161128c565b820191906000526020600020905b81548152906001019060200180831161126f57829003601f168201915b5050505050908060030180546112a190611bce565b80601f01602080910402602001604051908101604052809291908181526020018280546112cd90611bce565b801561131a5780601f106112ef5761010080835404028352916020019161131a565b820191906000526020600020905b8154815290600101906020018083116112fd57829003601f168201915b5050505050908060040154908060050160009054906101000a900473ffffffffffffffffffffffffffffffffffffffff16908060060160009054906101000a900473ffffffffffffffffffffffffffffffffffffffff16905087565b82805461138290611bce565b90600052602060002090601f0160209004810192826113a457600085556113eb565b82601f106113bd57805160ff19168380011785556113eb565b828001600101855582156113eb579182015b828111156113ea5782518255916020019190600101906113cf565b5b5090506113f89190611465565b5090565b6040518060e001604052806000815260200160608152602001606081526020016060815260200160008152602001600073ffffffffffffffffffffffffffffffffffffffff168152602001600073ffffffffffffffffffffffffffffffffffffffff1681525090565b5b8082111561147e576000816000905550600101611466565b5090565b600061149561149084611a90565b611a6b565b9050828152602081018484840111156114ad57600080fd5b6114b8848285611b8c565b509392505050565b6000813590506114cf81611ccf565b92915050565b600082601f8301126114e657600080fd5b81356114f6848260208601611482565b91505092915050565b60008135905061150e81611ce6565b92915050565b60006020828403121561152657600080fd5b6000611534848285016114c0565b91505092915050565b6000806000806080858703121561155357600080fd5b6000611561878288016114c0565b945050602085013567ffffffffffffffff81111561157e57600080fd5b61158a878288016114d5565b935050604085013567ffffffffffffffff8111156115a757600080fd5b6115b3878288016114d5565b925050606085013567ffffffffffffffff8111156115d057600080fd5b6115dc878288016114d5565b91505092959194509250565b600080604083850312156115fb57600080fd5b6000611609858286016114c0565b925050602061161a858286016114ff565b9150509250929050565b6000806000806080858703121561163a57600080fd5b600085013567ffffffffffffffff81111561165457600080fd5b611660878288016114d5565b945050602085013567ffffffffffffffff81111561167d57600080fd5b611689878288016114d5565b935050604085013567ffffffffffffffff8111156116a657600080fd5b6116b2878288016114d5565b92505060606116c3878288016114c0565b91505092959194509250565b6000602082840312156116e157600080fd5b60006116ef848285016114ff565b91505092915050565b61170181611b44565b82525050565b61171081611b44565b82525050565b61171f81611b56565b82525050565b600061173082611ac1565b61173a8185611acc565b935061174a818560208601611b9b565b61175381611cbe565b840191505092915050565b600061176982611ac1565b6117738185611add565b9350611783818560208601611b9b565b61178c81611cbe565b840191505092915050565b600060e0830160008301516117af6000860182611841565b50602083015184820360208601526117c78282611725565b915050604083015184820360408601526117e18282611725565b915050606083015184820360608601526117fb8282611725565b91505060808301516118106080860182611841565b5060a083015161182360a08601826116f8565b5060c083015161183660c08601826116f8565b508091505092915050565b61184a81611b82565b82525050565b61185981611b82565b82525050565b60006020820190506118746000830184611707565b92915050565b600060808201905061188f6000830187611707565b81810360208301526118a1818661175e565b905081810360408301526118b5818561175e565b905081810360608301526118c9818461175e565b905095945050505050565b60006020820190506118e96000830184611716565b92915050565b60006080820190508181036000830152611909818761175e565b9050818103602083015261191d818661175e565b90508181036040830152611931818561175e565b90508181036060830152611945818461175e565b905095945050505050565b6000608082019050818103600083015261196a818761175e565b9050818103602083015261197e818661175e565b90508181036040830152611992818561175e565b90506119a16060830184611850565b95945050505050565b600060208201905081810360008301526119c48184611797565b905092915050565b60006020820190506119e16000830184611850565b92915050565b600060e0820190506119fc600083018a611850565b8181036020830152611a0e818961175e565b90508181036040830152611a22818861175e565b90508181036060830152611a36818761175e565b9050611a456080830186611850565b611a5260a0830185611707565b611a5f60c0830184611707565b98975050505050505050565b6000611a75611a86565b9050611a818282611c00565b919050565b6000604051905090565b600067ffffffffffffffff821115611aab57611aaa611c8f565b5b611ab482611cbe565b9050602081019050919050565b600081519050919050565b600082825260208201905092915050565b600082825260208201905092915050565b6000611af982611b82565b9150611b0483611b82565b9250827fffffffffffffffffffffffffffffffffffffffffffffffffffffffffffffffff03821115611b3957611b38611c31565b5b828201905092915050565b6000611b4f82611b62565b9050919050565b60008115159050919050565b600073ffffffffffffffffffffffffffffffffffffffff82169050919050565b6000819050919050565b82818337600083830152505050565b60005b83811015611bb9578082015181840152602081019050611b9e565b83811115611bc8576000848401525b50505050565b60006002820490506001821680611be657607f821691505b60208210811415611bfa57611bf9611c60565b5b50919050565b611c0982611cbe565b810181811067ffffffffffffffff82111715611c2857611c27611c8f565b5b80604052505050565b7f4e487b7100000000000000000000000000000000000000000000000000000000600052601160045260246000fd5b7f4e487b7100000000000000000000000000000000000000000000000000000000600052602260045260246000fd5b7f4e487b7100000000000000000000000000000000000000000000000000000000600052604160045260246000fd5b6000601f19601f8301169050919050565b611cd881611b44565b8114611ce357600080fd5b50565b611cef81611b82565b8114611cfa57600080fd5b5056fea264697066735822122028df717cf80e41002c709dd68e30fe4637adfdba180ee227f170f702a746213a64736f6c634300080300334d4673774451594a4b6f5a496876634e41514542425141445367417752774a4164564c6e2f7950477337396a44383173627376596c7a44303238737779764f4e364f2f34444b476f386c2f46736e376c52532f534b6e385a55424e434d3958555774693443324f76574b614532504854764630764e514944415141424d4947664d413047435371475349623344514542415155414134474e4144434269514b42675144633167777a44414234636167674d3259664e5a436d75316641762f6c46306c5767614f7133777648794c7477325468677535367957705143702f444e457934497367427430634f5350305353544e47503156313334674a42716974736e6f725a65306452694f2f364161535a432f6d46415145673861682f4852736750433347517957763752594d4369337161702b71314d386e444f4e45664e42435069626541437978394d447a7641774944415141424d4677774451594a4b6f5a496876634e41514542425141445377417753414a42414b51673376554c747230354f566b643150567362566d784d4a694d7730724a516a632f7367454d7a6f4b434434773931552b656c6a436e4b59474c4d6d4a7676594b464e46514244764f337154635633617065696c30434177454141513d3d",
  "immutableReferences": {},
  "source": "// SPDX-License-Identifier: MIT\r\npragma solidity ^0.8.3;\r\n\r\ncontract SmartContract {\r\n\t\r\n\tmapping (address => bool) public isDoctor;\r\n\r\n    event patientAdded(\r\n    \taddress patientaddress,\r\n    \tstring firstname,\r\n    \tstring lastname,\r\n    \tstring pubKey\r\n    );\r\n    event recordAdded(\r\n    \tuint fileCounter, \r\n    \tstring hash, \r\n    \tstring name,\r\n    \tstring description,\r\n    \tuint time,\r\n    \taddress owner,\r\n    \taddress uploader\r\n    );\r\n\r\n\t\r\n\r\n\tmodifier OnlyPatient(){\r\n        require(isPatient[msg.sender] == true);\r\n        _;\r\n    }\r\n\r\n\tstruct Doctor {\r\n\t\tstring firstname;\r\n\t    string lastname;\r\n\t    string pubKey;\r\n\t    string specialization;\r\n\t}\r\n\r\n\tmodifier OnlyDoctor(){\r\n        require(isDoctor[msg.sender] == true);\r\n        _;\r\n    }\r\n\r\n\tconstructor() public {\r\n\t\tisDoctor[0x39f573c0f078847939AAEeEDca6BEe1cFE772086] = true;\r\n\t    doctormapping[0x39f573c0f078847939AAEeEDca6BEe1cFE772086].firstname = \"Dr\";\r\n\t    doctormapping[0x39f573c0f078847939AAEeEDca6BEe1cFE772086].lastname = \"Dre\";\r\n\t    doctormapping[0x39f573c0f078847939AAEeEDca6BEe1cFE772086].pubKey = \"MIGfMA0GCSqGSIb3DQEBAQUAA4GNADCBiQKBgQDc1gwzDAB4caggM2YfNZCmu1fAv/lF0lWgaOq3wvHyLtw2Thgu56yWpQCp/DNEy4IsgBt0cOSP0SSTNGP1V134gJBqitsnorZe0dRiO/6AaSZC/mFAQEg8ah/HRsgPC3GQyWv7RYMCi3qap+q1M8nDONEfNBCPibeACyx9MDzvAwIDAQAB\";\r\n\t    doctormapping[0x39f573c0f078847939AAEeEDca6BEe1cFE772086].specialization = \"Cardiologist\";\r\n\t    doctorAdd.push(0x39f573c0f078847939AAEeEDca6BEe1cFE772086);\r\n\r\n\t    isDoctor[0x69fD5F300FAac374A89a4C785D6941C33e97d2E6] = true;\r\n\t    doctormapping[0x69fD5F300FAac374A89a4C785D6941C33e97d2E6].firstname = \"Dr\";\r\n\t    doctormapping[0x69fD5F300FAac374A89a4C785D6941C33e97d2E6].lastname = \"Oetker\";\r\n\t    doctormapping[0x69fD5F300FAac374A89a4C785D6941C33e97d2E6].pubKey = \"MFwwDQYJKoZIhvcNAQEBBQADSwAwSAJBAKQg3vULtr05OVkd1PVsbVmxMJiMw0rJQjc/sgEMzoKCD4w91U+eljCnKYGLMmJvvYKFNFQBDvO3qTcV3apeil0CAwEAAQ==\";\r\n\t    doctormapping[0x69fD5F300FAac374A89a4C785D6941C33e97d2E6].specialization = \"Pediatrician\";\r\n\t    doctorAdd.push(0x69fD5F300FAac374A89a4C785D6941C33e97d2E6);\r\n\r\n\t    isDoctor[0xAFfa5DEb9b4aA5F1d3d722b82D64079fFa0e8bC2] = true;\r\n\t    doctormapping[0xAFfa5DEb9b4aA5F1d3d722b82D64079fFa0e8bC2].firstname = \"Dr\";\r\n\t    doctormapping[0xAFfa5DEb9b4aA5F1d3d722b82D64079fFa0e8bC2].lastname = \"Gerard\";\r\n\t    doctormapping[0xAFfa5DEb9b4aA5F1d3d722b82D64079fFa0e8bC2].pubKey = \"MFswDQYJKoZIhvcNAQEBBQADSgAwRwJAdVLn/yPGs79jD81sbsvYlzD028swyvON6O/4DKGo8l/Fsn7lRS/SKn8ZUBNCM9XUWti4C2OvWKaE2PHTvF0vNQIDAQAB\";\r\n\t    doctormapping[0xAFfa5DEb9b4aA5F1d3d722b82D64079fFa0e8bC2].specialization = \"Immunologist\";\r\n\t    doctorAdd.push(0xAFfa5DEb9b4aA5F1d3d722b82D64079fFa0e8bC2);\r\n\t}\r\n\t\r\n\r\n\r\n\t\r\n\tmapping (address => Doctor) public doctormapping;\r\n\taddress[] public doctorAdd;\r\n\r\n\tstruct Patient {\r\n\t    string firstname;\r\n\t    string lastname;\r\n\t    string pubKey;\r\n        mapping (uint => File) yourfiles;\r\n        uint fileCounter;\r\n\t}\r\n\t\r\n\tmapping (address => bool) public isPatient;\r\n\tmapping (address => Patient) public patientmapping;\r\n\taddress[] public patientAdd;\r\n\r\n\tfunction addPatient(address _patientaddress, string memory _firstname, string memory _lastname, string memory _pubKey) public {\r\n\t    isPatient[_patientaddress] = true;\r\n\t    patientmapping[_patientaddress].firstname = _firstname;\r\n\t    patientmapping[_patientaddress].lastname = _lastname;\r\n\t    patientmapping[_patientaddress].pubKey = _pubKey;\r\n        patientmapping[_patientaddress].fileCounter = 0;\r\n\t    patientAdd.push(_patientaddress);\r\n\t            \r\n\t    emit patientAdded(_patientaddress, _firstname, _lastname, _pubKey);\r\n\t}\r\n\r\n\tstruct File {\r\n\t    uint id;\r\n\t    string hash;\r\n\t    string name;\r\n\t    string description;\r\n\t    uint date;\r\n\t    address owner;\r\n\t    address uploader;\r\n\t}\r\n\t\r\n\tuint public id = 0;    \r\n\tmapping (uint => File) public filemapping;\r\n\t\r\n\r\n\tfunction addRecord(string memory _hash, string memory _name, string memory _description, address _owner) public {\r\n\t\trequire (bytes(_hash).length > 0);\r\n\t\trequire (bytes(_name).length > 0);\r\n\t\trequire (bytes(_description).length > 0);\r\n\t\trequire (msg.sender!=address(0));\r\n\t\trequire (_owner!=address(0));\r\n\t\tuint counter = patientmapping[_owner].fileCounter;\r\n\t\tpatientmapping[_owner].fileCounter = counter + 1;\r\n        patientmapping[_owner].yourfiles[counter] = File(id, _hash, _name, _description, block.timestamp, _owner, msg.sender);\r\n        \r\n        id = id + 1;\r\n\t\tfilemapping[id] = File(id, _hash, _name, _description, block.timestamp, _owner, msg.sender);\r\n\t\temit recordAdded(id, _hash, _name, _description, block.timestamp, _owner, msg.sender);\t\t\r\n\t}\r\n\r\n    function getPatientFiles(address patientAddress, uint index) public  view  returns  (File memory) {\r\n\t\tFile memory file = patientmapping[patientAddress].yourfiles[index];\r\n\t\treturn file;\r\n\t}\r\n}",
  "sourcePath": "D:\\PracaInz\\StorageOfMedicalDataWithSupportOfBlockchainTechnology\\contracts\\SmartContract.sol",
  "compiler": {
    "name": "solc",
    "version": "0.8.3+commit.8d00100c.Emscripten.clang"
  },
  "schemaVersion": "3.4.4",
  "updatedAt": "2022-01-21T19:36:36.473Z",
  "networkType": "ethereum",
  "devdoc": {
    "kind": "dev",
    "methods": {},
    "version": 1
  },
  "userdoc": {
    "kind": "user",
    "methods": {},
    "version": 1
  }
}